{
  "_format": "hh-sol-artifact-1",
  "contractName": "ERC1155Contract",
  "sourceName": "contracts/ERC1155Contract.sol",
  "abi": [
    {
      "inputs": [],
      "stateMutability": "nonpayable",
      "type": "constructor"
    },
    {
      "inputs": [],
      "name": "InSufficientMatic",
      "type": "error"
    },
    {
      "inputs": [],
      "name": "InvalidWalletAddress",
      "type": "error"
    },
    {
      "inputs": [],
      "name": "TokenAmountCanNotBeZero",
      "type": "error"
    },
    {
      "anonymous": false,
      "inputs": [
        {
          "indexed": true,
          "internalType": "address",
          "name": "account",
          "type": "address"
        },
        {
          "indexed": true,
          "internalType": "address",
          "name": "operator",
          "type": "address"
        },
        {
          "indexed": false,
          "internalType": "bool",
          "name": "approved",
          "type": "bool"
        }
      ],
      "name": "ApprovalForAll",
      "type": "event"
    },
    {
      "anonymous": false,
      "inputs": [
        {
          "indexed": true,
          "internalType": "address",
          "name": "operator",
          "type": "address"
        },
        {
          "indexed": true,
          "internalType": "address",
          "name": "from",
          "type": "address"
        },
        {
          "indexed": true,
          "internalType": "address",
          "name": "to",
          "type": "address"
        },
        {
          "indexed": false,
          "internalType": "uint256[]",
          "name": "ids",
          "type": "uint256[]"
        },
        {
          "indexed": false,
          "internalType": "uint256[]",
          "name": "values",
          "type": "uint256[]"
        }
      ],
      "name": "TransferBatch",
      "type": "event"
    },
    {
      "anonymous": false,
      "inputs": [
        {
          "indexed": true,
          "internalType": "address",
          "name": "operator",
          "type": "address"
        },
        {
          "indexed": true,
          "internalType": "address",
          "name": "from",
          "type": "address"
        },
        {
          "indexed": true,
          "internalType": "address",
          "name": "to",
          "type": "address"
        },
        {
          "indexed": false,
          "internalType": "uint256",
          "name": "id",
          "type": "uint256"
        },
        {
          "indexed": false,
          "internalType": "uint256",
          "name": "value",
          "type": "uint256"
        }
      ],
      "name": "TransferSingle",
      "type": "event"
    },
    {
      "anonymous": false,
      "inputs": [
        {
          "indexed": false,
          "internalType": "string",
          "name": "value",
          "type": "string"
        },
        {
          "indexed": true,
          "internalType": "uint256",
          "name": "id",
          "type": "uint256"
        }
      ],
      "name": "URI",
      "type": "event"
    },
    {
      "inputs": [
        {
          "internalType": "address",
          "name": "account",
          "type": "address"
        },
        {
          "internalType": "uint256",
          "name": "id",
          "type": "uint256"
        }
      ],
      "name": "balanceOf",
      "outputs": [
        {
          "internalType": "uint256",
          "name": "",
          "type": "uint256"
        }
      ],
      "stateMutability": "view",
      "type": "function"
    },
    {
      "inputs": [
        {
          "internalType": "address[]",
          "name": "accounts",
          "type": "address[]"
        },
        {
          "internalType": "uint256[]",
          "name": "ids",
          "type": "uint256[]"
        }
      ],
      "name": "balanceOfBatch",
      "outputs": [
        {
          "internalType": "uint256[]",
          "name": "",
          "type": "uint256[]"
        }
      ],
      "stateMutability": "view",
      "type": "function"
    },
    {
      "inputs": [
        {
          "internalType": "address",
          "name": "account",
          "type": "address"
        },
        {
          "internalType": "address",
          "name": "operator",
          "type": "address"
        }
      ],
      "name": "isApprovedForAll",
      "outputs": [
        {
          "internalType": "bool",
          "name": "",
          "type": "bool"
        }
      ],
      "stateMutability": "view",
      "type": "function"
    },
    {
      "inputs": [
        {
          "internalType": "address",
          "name": "from",
          "type": "address"
        },
        {
          "internalType": "address",
          "name": "to",
          "type": "address"
        },
        {
          "internalType": "uint256[]",
          "name": "ids",
          "type": "uint256[]"
        },
        {
          "internalType": "uint256[]",
          "name": "amounts",
          "type": "uint256[]"
        },
        {
          "internalType": "bytes",
          "name": "data",
          "type": "bytes"
        }
      ],
      "name": "safeBatchTransferFrom",
      "outputs": [],
      "stateMutability": "nonpayable",
      "type": "function"
    },
    {
      "inputs": [
        {
          "internalType": "address",
          "name": "from",
          "type": "address"
        },
        {
          "internalType": "address",
          "name": "to",
          "type": "address"
        },
        {
          "internalType": "uint256",
          "name": "id",
          "type": "uint256"
        },
        {
          "internalType": "uint256",
          "name": "amount",
          "type": "uint256"
        },
        {
          "internalType": "bytes",
          "name": "data",
          "type": "bytes"
        }
      ],
      "name": "safeTransferFrom",
      "outputs": [],
      "stateMutability": "nonpayable",
      "type": "function"
    },
    {
      "inputs": [
        {
          "internalType": "address",
          "name": "operator",
          "type": "address"
        },
        {
          "internalType": "bool",
          "name": "approved",
          "type": "bool"
        }
      ],
      "name": "setApprovalForAll",
      "outputs": [],
      "stateMutability": "nonpayable",
      "type": "function"
    },
    {
      "inputs": [
        {
          "internalType": "uint256",
          "name": "tokenId",
          "type": "uint256"
        },
        {
          "internalType": "uint256",
          "name": "amount",
          "type": "uint256"
        }
      ],
      "name": "startBurningToken",
      "outputs": [],
      "stateMutability": "payable",
      "type": "function"
    },
    {
      "inputs": [
        {
          "internalType": "uint256",
          "name": "tokenId",
          "type": "uint256"
        },
        {
          "internalType": "uint256",
          "name": "amount",
          "type": "uint256"
        }
      ],
      "name": "startMintingToken",
      "outputs": [],
      "stateMutability": "payable",
      "type": "function"
    },
    {
      "inputs": [
        {
          "internalType": "uint256",
          "name": "fromTokenId",
          "type": "uint256"
        },
        {
          "internalType": "uint256",
          "name": "toTokenId",
          "type": "uint256"
        },
        {
          "internalType": "uint256",
          "name": "amount",
          "type": "uint256"
        }
      ],
      "name": "startTransferringToken",
      "outputs": [],
      "stateMutability": "payable",
      "type": "function"
    },
    {
      "inputs": [
        {
          "internalType": "bytes4",
          "name": "interfaceId",
          "type": "bytes4"
        }
      ],
      "name": "supportsInterface",
      "outputs": [
        {
          "internalType": "bool",
          "name": "",
          "type": "bool"
        }
      ],
      "stateMutability": "view",
      "type": "function"
    },
    {
      "inputs": [
        {
          "internalType": "uint256",
          "name": "",
          "type": "uint256"
        }
      ],
      "name": "uri",
      "outputs": [
        {
          "internalType": "string",
          "name": "",
          "type": "string"
        }
      ],
      "stateMutability": "view",
      "type": "function"
    }
  ],
  "bytecode": "0x608060405260405180608001604052806042815260200162004286604291396003908051906020019062000035929190620005d8565b50604051806080016040528060428152602001620042c8604291396004908051906020019062000067929190620005d8565b5060405180608001604052806044815260200162004242604491396005908051906020019062000099929190620005d8565b50670de0b6b3a7640000600655348015620000b357600080fd5b5060058054620000c39062000765565b80601f0160208091040260200160405190810160405280929190818152602001828054620000f19062000765565b8015620001425780601f10620001165761010080835404028352916020019162000142565b820191906000526020600020905b8154815290600101906020018083116200012457829003601f168201915b505050505062000158816200018f60201b60201c565b5062000169620001ab60201b60201c565b620001796200038860201b60201c565b620001896200049c60201b60201c565b6200079a565b8060029080519060200190620001a7929190620005d8565b5050565b6040518060800160405280604481526020016200424260449139600760008081526020019081526020016000209080519060200190620001ed929190620005d8565b506040518060800160405280604481526020016200434e604491396007600060018152602001908152602001600020908051906020019062000231929190620005d8565b5060405180608001604052806044815260200162004176604491396007600060028152602001908152602001600020908051906020019062000275929190620005d8565b50604051806080016040528060448152602001620041ba6044913960076000600381526020019081526020016000209080519060200190620002b9929190620005d8565b50604051806080016040528060448152602001620043926044913960076000600481526020019081526020016000209080519060200190620002fd929190620005d8565b506040518060800160405280604481526020016200430a604491396007600060058152602001908152602001600020908051906020019062000341929190620005d8565b50604051806080016040528060448152602001620041fe604491396007600060068152602001908152602001600020908051906020019062000385929190620005d8565b50565b6040518060400160405280600060ff168152602001600160ff168152506009600060038152602001908152602001600020906002620003c992919062000669565b506040518060400160405280600160ff168152602001600260ff1681525060096000600481526020019081526020016000209060026200040b92919062000669565b506040518060400160405280600060ff168152602001600260ff1681525060096000600581526020019081526020016000209060026200044d92919062000669565b506040518060600160405280600060ff168152602001600160ff168152602001600260ff16815250600960006006815260200190815260200160002090600362000499929190620006c0565b50565b60016008600080815260200190815260200160002060006101000a81548160ff0219169083151502179055506001600860006001815260200190815260200160002060006101000a81548160ff0219169083151502179055506001600860006002815260200190815260200160002060006101000a81548160ff0219169083151502179055506001600860006003815260200190815260200160002060006101000a81548160ff0219169083151502179055506001600860006004815260200190815260200160002060006101000a81548160ff0219169083151502179055506001600860006005815260200190815260200160002060006101000a81548160ff0219169083151502179055506001600860006006815260200190815260200160002060006101000a81548160ff021916908315150217905550565b828054620005e69062000765565b90600052602060002090601f0160209004810192826200060a576000855562000656565b82601f106200062557805160ff191683800117855562000656565b8280016001018555821562000656579182015b828111156200065557825182559160200191906001019062000638565b5b50905062000665919062000717565b5090565b828054828255906000526020600020908101928215620006ad579160200282015b82811115620006ac578251829060ff169055916020019190600101906200068a565b5b509050620006bc919062000717565b5090565b82805482825590600052602060002090810192821562000704579160200282015b8281111562000703578251829060ff16905591602001919060010190620006e1565b5b50905062000713919062000717565b5090565b5b808211156200073257600081600090555060010162000718565b5090565b7f4e487b7100000000000000000000000000000000000000000000000000000000600052602260045260246000fd5b600060028204905060018216806200077e57607f821691505b60208210810362000794576200079362000736565b5b50919050565b6139cc80620007aa6000396000f3fe60806040526004361061009b5760003560e01c80634e1273f4116100645780634e1273f41461019c578063a22cb465146101d9578063a73e4c0814610202578063dd9a2d7b1461021e578063e985e9c51461023a578063f242432a146102775761009b565b8062fdd58e146100a057806301ffc9a7146100dd5780630e89341c1461011a578063290b6802146101575780632eb2c2d614610173575b600080fd5b3480156100ac57600080fd5b506100c760048036038101906100c291906122c3565b6102a0565b6040516100d49190612312565b60405180910390f35b3480156100e957600080fd5b5061010460048036038101906100ff9190612385565b610368565b60405161011191906123cd565b60405180910390f35b34801561012657600080fd5b50610141600480360381019061013c91906123e8565b61044a565b60405161014e91906124ae565b60405180910390f35b610171600480360381019061016c91906124d0565b6104de565b005b34801561017f57600080fd5b5061019a6004803603810190610195919061270d565b61055b565b005b3480156101a857600080fd5b506101c360048036038101906101be919061289f565b6105fc565b6040516101d091906129d5565b60405180910390f35b3480156101e557600080fd5b5061020060048036038101906101fb9190612a23565b610715565b005b61021c600480360381019061021791906124d0565b61072b565b005b61023860048036038101906102339190612a63565b610761565b005b34801561024657600080fd5b50610261600480360381019061025c9190612ab6565b6107cc565b60405161026e91906123cd565b60405180910390f35b34801561028357600080fd5b5061029e60048036038101906102999190612af6565b610860565b005b60008073ffffffffffffffffffffffffffffffffffffffff168373ffffffffffffffffffffffffffffffffffffffff1603610310576040517f08c379a000000000000000000000000000000000000000000000000000000000815260040161030790612bff565b60405180910390fd5b60008083815260200190815260200160002060008473ffffffffffffffffffffffffffffffffffffffff1673ffffffffffffffffffffffffffffffffffffffff16815260200190815260200160002054905092915050565b60007fd9b67a26000000000000000000000000000000000000000000000000000000007bffffffffffffffffffffffffffffffffffffffffffffffffffffffff1916827bffffffffffffffffffffffffffffffffffffffffffffffffffffffff1916148061043357507f0e89341c000000000000000000000000000000000000000000000000000000007bffffffffffffffffffffffffffffffffffffffffffffffffffffffff1916827bffffffffffffffffffffffffffffffffffffffffffffffffffffffff1916145b80610443575061044282610901565b5b9050919050565b60606002805461045990612c4e565b80601f016020809104026020016040519081016040528092919081815260200182805461048590612c4e565b80156104d25780601f106104a7576101008083540402835291602001916104d2565b820191906000526020600020905b8154815290600101906020018083116104b557829003601f168201915b50505050509050919050565b6104e78261096b565b506104f181610a10565b6104fb8282610a4d565b5061050533610dd8565b600061051083610e64565b90508034101561054c576040517fe0dc90d100000000000000000000000000000000000000000000000000000000815260040160405180910390fd5b6105568383610ef2565b505050565b610563610f46565b73ffffffffffffffffffffffffffffffffffffffff168573ffffffffffffffffffffffffffffffffffffffff1614806105a957506105a8856105a3610f46565b6107cc565b5b6105e8576040517f08c379a00000000000000000000000000000000000000000000000000000000081526004016105df90612cf1565b60405180910390fd5b6105f58585858585610f4e565b5050505050565b60608151835114610642576040517f08c379a000000000000000000000000000000000000000000000000000000000815260040161063990612d83565b60405180910390fd5b6000835167ffffffffffffffff81111561065f5761065e612515565b5b60405190808252806020026020018201604052801561068d5781602001602082028036833780820191505090505b50905060005b845181101561070a576106da8582815181106106b2576106b1612da3565b5b60200260200101518583815181106106cd576106cc612da3565b5b60200260200101516102a0565b8282815181106106ed576106ec612da3565b5b6020026020010181815250508061070390612e01565b9050610693565b508091505092915050565b610727610720610f46565b838361126f565b5050565b6107348261096b565b5061073e81610a10565b61074882826113db565b5061075233610dd8565b61075d338383611532565b5050565b61076a8361096b565b506107748261096b565b5061077e81610a10565b61078a83826001611778565b5061079783826000611778565b506107a133610dd8565b6107ac338483611532565b6107c733838360405180602001604052806000815250611902565b505050565b6000600160008473ffffffffffffffffffffffffffffffffffffffff1673ffffffffffffffffffffffffffffffffffffffff16815260200190815260200160002060008373ffffffffffffffffffffffffffffffffffffffff1673ffffffffffffffffffffffffffffffffffffffff16815260200190815260200160002060009054906101000a900460ff16905092915050565b610868610f46565b73ffffffffffffffffffffffffffffffffffffffff168573ffffffffffffffffffffffffffffffffffffffff1614806108ae57506108ad856108a8610f46565b6107cc565b5b6108ed576040517f08c379a00000000000000000000000000000000000000000000000000000000081526004016108e490612cf1565b60405180910390fd5b6108fa8585858585611ab2565b5050505050565b60007f01ffc9a7000000000000000000000000000000000000000000000000000000007bffffffffffffffffffffffffffffffffffffffffffffffffffffffff1916827bffffffffffffffffffffffffffffffffffffffffffffffffffffffff1916149050919050565b606060076000838152602001908152602001600020805461098b90612c4e565b80601f01602080910402602001604051908101604052809291908181526020018280546109b790612c4e565b8015610a045780601f106109d957610100808354040283529160200191610a04565b820191906000526020600020905b8154815290600101906020018083116109e757829003601f168201915b50505050509050919050565b60008103610a4a576040517f81c0d0de00000000000000000000000000000000000000000000000000000000815260040160405180910390fd5b50565b600080831480610a5d5750600183145b80610a685750600283145b15610a765760019050610dd2565b60038303610b3757600182610a8b9190612e49565b610a963360006102a0565b11610ad6576040517f08c379a0000000000000000000000000000000000000000000000000000000008152600401610acd90612ec9565b60405180910390fd5b600182610ae39190612e49565b610aee3360016102a0565b11610b2e576040517f08c379a0000000000000000000000000000000000000000000000000000000008152600401610b2590612f35565b60405180910390fd5b60019050610dd1565b60048303610bf857600182610b4c9190612e49565b610b573360016102a0565b11610b97576040517f08c379a0000000000000000000000000000000000000000000000000000000008152600401610b8e90612f35565b60405180910390fd5b600182610ba49190612e49565b610baf3360026102a0565b11610bef576040517f08c379a0000000000000000000000000000000000000000000000000000000008152600401610be690612fa1565b60405180910390fd5b60019050610dd0565b60058303610cb957600182610c0d9190612e49565b610c183360006102a0565b11610c58576040517f08c379a0000000000000000000000000000000000000000000000000000000008152600401610c4f90612ec9565b60405180910390fd5b600182610c659190612e49565b610c703360026102a0565b11610cb0576040517f08c379a0000000000000000000000000000000000000000000000000000000008152600401610ca790612fa1565b60405180910390fd5b60019050610dcf565b60068303610dce57600182610cce9190612e49565b610cd93360006102a0565b11610d19576040517f08c379a0000000000000000000000000000000000000000000000000000000008152600401610d1090612ec9565b60405180910390fd5b600182610d269190612e49565b610d313360016102a0565b11610d71576040517f08c379a0000000000000000000000000000000000000000000000000000000008152600401610d6890612f35565b60405180910390fd5b600182610d7e9190612e49565b610d893360026102a0565b11610dc9576040517f08c379a0000000000000000000000000000000000000000000000000000000008152600401610dc090612fa1565b60405180910390fd5b600190505b5b5b5b5b92915050565b600073ffffffffffffffffffffffffffffffffffffffff168173ffffffffffffffffffffffffffffffffffffffff161480610e2a575060008173ffffffffffffffffffffffffffffffffffffffff163b115b15610e61576040517fa5f90a1100000000000000000000000000000000000000000000000000000000815260040160405180910390fd5b50565b6000808203610e765760009050610eed565b60018203610e875760009050610eec565b60028203610e985760009050610eeb565b60038203610eaf57661550f7dca700009050610eea565b60048203610ec657661c6bf5263400009050610ee9565b60058203610edd57661c6bf5263400009050610ee8565b662386f26fc1000090505b5b5b5b5b5b919050565b6003821480610f015750600482145b80610f0c5750600582145b80610f175750600682145b15610f2757610f268282611d4d565b5b610f4233838360405180602001604052806000815250611902565b5050565b600033905090565b8151835114610f92576040517f08c379a0000000000000000000000000000000000000000000000000000000008152600401610f8990613033565b60405180910390fd5b600073ffffffffffffffffffffffffffffffffffffffff168473ffffffffffffffffffffffffffffffffffffffff1603611001576040517f08c379a0000000000000000000000000000000000000000000000000000000008152600401610ff8906130c5565b60405180910390fd5b600061100b610f46565b905061101b818787878787611dc0565b60005b84518110156111cc57600085828151811061103c5761103b612da3565b5b60200260200101519050600085838151811061105b5761105a612da3565b5b60200260200101519050600080600084815260200190815260200160002060008b73ffffffffffffffffffffffffffffffffffffffff1673ffffffffffffffffffffffffffffffffffffffff168152602001908152602001600020549050818110156110fc576040517f08c379a00000000000000000000000000000000000000000000000000000000081526004016110f390613157565b60405180910390fd5b81810360008085815260200190815260200160002060008c73ffffffffffffffffffffffffffffffffffffffff1673ffffffffffffffffffffffffffffffffffffffff168152602001908152602001600020819055508160008085815260200190815260200160002060008b73ffffffffffffffffffffffffffffffffffffffff1673ffffffffffffffffffffffffffffffffffffffff16815260200190815260200160002060008282546111b19190613177565b92505081905550505050806111c590612e01565b905061101e565b508473ffffffffffffffffffffffffffffffffffffffff168673ffffffffffffffffffffffffffffffffffffffff168273ffffffffffffffffffffffffffffffffffffffff167f4a39dc06d4c0dbc64b70af90fd698a233a518aa5d07e595d983b8c0526c8f7fb87876040516112439291906131cd565b60405180910390a4611259818787878787611dc8565b611267818787878787611dd0565b505050505050565b8173ffffffffffffffffffffffffffffffffffffffff168373ffffffffffffffffffffffffffffffffffffffff16036112dd576040517f08c379a00000000000000000000000000000000000000000000000000000000081526004016112d490613276565b60405180910390fd5b80600160008573ffffffffffffffffffffffffffffffffffffffff1673ffffffffffffffffffffffffffffffffffffffff16815260200190815260200160002060008473ffffffffffffffffffffffffffffffffffffffff1673ffffffffffffffffffffffffffffffffffffffff16815260200190815260200160002060006101000a81548160ff0219169083151502179055508173ffffffffffffffffffffffffffffffffffffffff168373ffffffffffffffffffffffffffffffffffffffff167f17307eab39ab6107e8899845ad3d59bd9653f200f220920489ca2b5937696c31836040516113ce91906123cd565b60405180910390a3505050565b600080831461141f576040517f08c379a0000000000000000000000000000000000000000000000000000000008152600401611416906132e2565b60405180910390fd5b60018314611462576040517f08c379a0000000000000000000000000000000000000000000000000000000008152600401611459906132e2565b60405180910390fd5b600283146114a5576040517f08c379a000000000000000000000000000000000000000000000000000000000815260040161149c906132e2565b60405180910390fd5b60038314806114b45750600483145b806114bf5750600583145b806114ca5750600683145b80156114d65750600082115b1561152c57816114e633856102a0565b1015611527576040517f08c379a000000000000000000000000000000000000000000000000000000000815260040161151e9061334e565b60405180910390fd5b600190505b92915050565b600073ffffffffffffffffffffffffffffffffffffffff168373ffffffffffffffffffffffffffffffffffffffff16036115a1576040517f08c379a0000000000000000000000000000000000000000000000000000000008152600401611598906133e0565b60405180910390fd5b60006115ab610f46565b905060006115b884611fa7565b905060006115c584611fa7565b90506115e583876000858560405180602001604052806000815250611dc0565b600080600087815260200190815260200160002060008873ffffffffffffffffffffffffffffffffffffffff1673ffffffffffffffffffffffffffffffffffffffff1681526020019081526020016000205490508481101561167c576040517f08c379a000000000000000000000000000000000000000000000000000000000815260040161167390613472565b60405180910390fd5b84810360008088815260200190815260200160002060008973ffffffffffffffffffffffffffffffffffffffff1673ffffffffffffffffffffffffffffffffffffffff16815260200190815260200160002081905550600073ffffffffffffffffffffffffffffffffffffffff168773ffffffffffffffffffffffffffffffffffffffff168573ffffffffffffffffffffffffffffffffffffffff167fc3d58168c5ae7397731d063d5bbf3d657854427343f4c083240f7aacaa2d0f628989604051611749929190613492565b60405180910390a461176f84886000868660405180602001604052806000815250611dc8565b50505050505050565b6000808414806117885750600184145b806117935750600284145b8061179e5750600384145b806117a95750600484145b806117b45750600584145b806117bf5750600684145b80156117cb5750600083115b80156117d45750815b1561182e57826117e433866102a0565b1015611825576040517f08c379a000000000000000000000000000000000000000000000000000000000815260040161181c90613507565b60405180910390fd5b600190506118fb565b600084148061183d5750600184145b806118485750600284145b80156118545750600083115b801561185e575081155b1561186c57600190506118fa565b600384148061187b5750600484145b806118865750600584145b806118915750600684145b801561189d5750600083115b80156118a7575081155b156118f957826118b733866102a0565b10156118f8576040517f08c379a00000000000000000000000000000000000000000000000000000000081526004016118ef90613599565b60405180910390fd5b5b5b5b9392505050565b600073ffffffffffffffffffffffffffffffffffffffff168473ffffffffffffffffffffffffffffffffffffffff1603611971576040517f08c379a00000000000000000000000000000000000000000000000000000000081526004016119689061362b565b60405180910390fd5b600061197b610f46565b9050600061198885611fa7565b9050600061199585611fa7565b90506119a683600089858589611dc0565b8460008088815260200190815260200160002060008973ffffffffffffffffffffffffffffffffffffffff1673ffffffffffffffffffffffffffffffffffffffff1681526020019081526020016000206000828254611a059190613177565b925050819055508673ffffffffffffffffffffffffffffffffffffffff16600073ffffffffffffffffffffffffffffffffffffffff168473ffffffffffffffffffffffffffffffffffffffff167fc3d58168c5ae7397731d063d5bbf3d657854427343f4c083240f7aacaa2d0f628989604051611a83929190613492565b60405180910390a4611a9a83600089858589611dc8565b611aa983600089898989612021565b50505050505050565b600073ffffffffffffffffffffffffffffffffffffffff168473ffffffffffffffffffffffffffffffffffffffff1603611b21576040517f08c379a0000000000000000000000000000000000000000000000000000000008152600401611b18906130c5565b60405180910390fd5b6000611b2b610f46565b90506000611b3885611fa7565b90506000611b4585611fa7565b9050611b55838989858589611dc0565b600080600088815260200190815260200160002060008a73ffffffffffffffffffffffffffffffffffffffff1673ffffffffffffffffffffffffffffffffffffffff16815260200190815260200160002054905085811015611bec576040517f08c379a0000000000000000000000000000000000000000000000000000000008152600401611be390613157565b60405180910390fd5b85810360008089815260200190815260200160002060008b73ffffffffffffffffffffffffffffffffffffffff1673ffffffffffffffffffffffffffffffffffffffff168152602001908152602001600020819055508560008089815260200190815260200160002060008a73ffffffffffffffffffffffffffffffffffffffff1673ffffffffffffffffffffffffffffffffffffffff1681526020019081526020016000206000828254611ca19190613177565b925050819055508773ffffffffffffffffffffffffffffffffffffffff168973ffffffffffffffffffffffffffffffffffffffff168573ffffffffffffffffffffffffffffffffffffffff167fc3d58168c5ae7397731d063d5bbf3d657854427343f4c083240f7aacaa2d0f628a8a604051611d1e929190613492565b60405180910390a4611d34848a8a86868a611dc8565b611d42848a8a8a8a8a612021565b505050505050505050565b60005b6009600084815260200190815260200160002080549050811015611dbb57611da833600960008681526020019081526020016000208381548110611d9757611d96612da3565b5b906000526020600020015484611532565b8080611db390612e01565b915050611d50565b505050565b505050505050565b505050505050565b611def8473ffffffffffffffffffffffffffffffffffffffff166121f8565b15611f9f578373ffffffffffffffffffffffffffffffffffffffff1663bc197c8187878686866040518663ffffffff1660e01b8152600401611e359594939291906136af565b6020604051808303816000875af1925050508015611e7157506040513d601f19601f82011682018060405250810190611e6e919061372c565b60015b611f1657611e7d613766565b806308c379a003611ed95750611e91613788565b80611e9c5750611edb565b806040517f08c379a0000000000000000000000000000000000000000000000000000000008152600401611ed091906124ae565b60405180910390fd5b505b6040517f08c379a0000000000000000000000000000000000000000000000000000000008152600401611f0d9061388a565b60405180910390fd5b63bc197c8160e01b7bffffffffffffffffffffffffffffffffffffffffffffffffffffffff1916817bffffffffffffffffffffffffffffffffffffffffffffffffffffffff191614611f9d576040517f08c379a0000000000000000000000000000000000000000000000000000000008152600401611f949061391c565b60405180910390fd5b505b505050505050565b60606000600167ffffffffffffffff811115611fc657611fc5612515565b5b604051908082528060200260200182016040528015611ff45781602001602082028036833780820191505090505b509050828160008151811061200c5761200b612da3565b5b60200260200101818152505080915050919050565b6120408473ffffffffffffffffffffffffffffffffffffffff166121f8565b156121f0578373ffffffffffffffffffffffffffffffffffffffff1663f23a6e6187878686866040518663ffffffff1660e01b815260040161208695949392919061393c565b6020604051808303816000875af19250505080156120c257506040513d601f19601f820116820180604052508101906120bf919061372c565b60015b612167576120ce613766565b806308c379a00361212a57506120e2613788565b806120ed575061212c565b806040517f08c379a000000000000000000000000000000000000000000000000000000000815260040161212191906124ae565b60405180910390fd5b505b6040517f08c379a000000000000000000000000000000000000000000000000000000000815260040161215e9061388a565b60405180910390fd5b63f23a6e6160e01b7bffffffffffffffffffffffffffffffffffffffffffffffffffffffff1916817bffffffffffffffffffffffffffffffffffffffffffffffffffffffff1916146121ee576040517f08c379a00000000000000000000000000000000000000000000000000000000081526004016121e59061391c565b60405180910390fd5b505b505050505050565b6000808273ffffffffffffffffffffffffffffffffffffffff163b119050919050565b6000604051905090565b600080fd5b600080fd5b600073ffffffffffffffffffffffffffffffffffffffff82169050919050565b600061225a8261222f565b9050919050565b61226a8161224f565b811461227557600080fd5b50565b60008135905061228781612261565b92915050565b6000819050919050565b6122a08161228d565b81146122ab57600080fd5b50565b6000813590506122bd81612297565b92915050565b600080604083850312156122da576122d9612225565b5b60006122e885828601612278565b92505060206122f9858286016122ae565b9150509250929050565b61230c8161228d565b82525050565b60006020820190506123276000830184612303565b92915050565b60007fffffffff0000000000000000000000000000000000000000000000000000000082169050919050565b6123628161232d565b811461236d57600080fd5b50565b60008135905061237f81612359565b92915050565b60006020828403121561239b5761239a612225565b5b60006123a984828501612370565b91505092915050565b60008115159050919050565b6123c7816123b2565b82525050565b60006020820190506123e260008301846123be565b92915050565b6000602082840312156123fe576123fd612225565b5b600061240c848285016122ae565b91505092915050565b600081519050919050565b600082825260208201905092915050565b60005b8381101561244f578082015181840152602081019050612434565b8381111561245e576000848401525b50505050565b6000601f19601f8301169050919050565b600061248082612415565b61248a8185612420565b935061249a818560208601612431565b6124a381612464565b840191505092915050565b600060208201905081810360008301526124c88184612475565b905092915050565b600080604083850312156124e7576124e6612225565b5b60006124f5858286016122ae565b9250506020612506858286016122ae565b9150509250929050565b600080fd5b7f4e487b7100000000000000000000000000000000000000000000000000000000600052604160045260246000fd5b61254d82612464565b810181811067ffffffffffffffff8211171561256c5761256b612515565b5b80604052505050565b600061257f61221b565b905061258b8282612544565b919050565b600067ffffffffffffffff8211156125ab576125aa612515565b5b602082029050602081019050919050565b600080fd5b60006125d46125cf84612590565b612575565b905080838252602082019050602084028301858111156125f7576125f66125bc565b5b835b81811015612620578061260c88826122ae565b8452602084019350506020810190506125f9565b5050509392505050565b600082601f83011261263f5761263e612510565b5b813561264f8482602086016125c1565b91505092915050565b600080fd5b600067ffffffffffffffff82111561267857612677612515565b5b61268182612464565b9050602081019050919050565b82818337600083830152505050565b60006126b06126ab8461265d565b612575565b9050828152602081018484840111156126cc576126cb612658565b5b6126d784828561268e565b509392505050565b600082601f8301126126f4576126f3612510565b5b813561270484826020860161269d565b91505092915050565b600080600080600060a0868803121561272957612728612225565b5b600061273788828901612278565b955050602061274888828901612278565b945050604086013567ffffffffffffffff8111156127695761276861222a565b5b6127758882890161262a565b935050606086013567ffffffffffffffff8111156127965761279561222a565b5b6127a28882890161262a565b925050608086013567ffffffffffffffff8111156127c3576127c261222a565b5b6127cf888289016126df565b9150509295509295909350565b600067ffffffffffffffff8211156127f7576127f6612515565b5b602082029050602081019050919050565b600061281b612816846127dc565b612575565b9050808382526020820190506020840283018581111561283e5761283d6125bc565b5b835b8181101561286757806128538882612278565b845260208401935050602081019050612840565b5050509392505050565b600082601f83011261288657612885612510565b5b8135612896848260208601612808565b91505092915050565b600080604083850312156128b6576128b5612225565b5b600083013567ffffffffffffffff8111156128d4576128d361222a565b5b6128e085828601612871565b925050602083013567ffffffffffffffff8111156129015761290061222a565b5b61290d8582860161262a565b9150509250929050565b600081519050919050565b600082825260208201905092915050565b6000819050602082019050919050565b61294c8161228d565b82525050565b600061295e8383612943565b60208301905092915050565b6000602082019050919050565b600061298282612917565b61298c8185612922565b935061299783612933565b8060005b838110156129c85781516129af8882612952565b97506129ba8361296a565b92505060018101905061299b565b5085935050505092915050565b600060208201905081810360008301526129ef8184612977565b905092915050565b612a00816123b2565b8114612a0b57600080fd5b50565b600081359050612a1d816129f7565b92915050565b60008060408385031215612a3a57612a39612225565b5b6000612a4885828601612278565b9250506020612a5985828601612a0e565b9150509250929050565b600080600060608486031215612a7c57612a7b612225565b5b6000612a8a868287016122ae565b9350506020612a9b868287016122ae565b9250506040612aac868287016122ae565b9150509250925092565b60008060408385031215612acd57612acc612225565b5b6000612adb85828601612278565b9250506020612aec85828601612278565b9150509250929050565b600080600080600060a08688031215612b1257612b11612225565b5b6000612b2088828901612278565b9550506020612b3188828901612278565b9450506040612b42888289016122ae565b9350506060612b53888289016122ae565b925050608086013567ffffffffffffffff811115612b7457612b7361222a565b5b612b80888289016126df565b9150509295509295909350565b7f455243313135353a2061646472657373207a65726f206973206e6f742061207660008201527f616c6964206f776e657200000000000000000000000000000000000000000000602082015250565b6000612be9602a83612420565b9150612bf482612b8d565b604082019050919050565b60006020820190508181036000830152612c1881612bdc565b9050919050565b7f4e487b7100000000000000000000000000000000000000000000000000000000600052602260045260246000fd5b60006002820490506001821680612c6657607f821691505b602082108103612c7957612c78612c1f565b5b50919050565b7f455243313135353a2063616c6c6572206973206e6f7420746f6b656e206f776e60008201527f6572206e6f7220617070726f7665640000000000000000000000000000000000602082015250565b6000612cdb602f83612420565b9150612ce682612c7f565b604082019050919050565b60006020820190508181036000830152612d0a81612cce565b9050919050565b7f455243313135353a206163636f756e747320616e6420696473206c656e67746860008201527f206d69736d617463680000000000000000000000000000000000000000000000602082015250565b6000612d6d602983612420565b9150612d7882612d11565b604082019050919050565b60006020820190508181036000830152612d9c81612d60565b9050919050565b7f4e487b7100000000000000000000000000000000000000000000000000000000600052603260045260246000fd5b7f4e487b7100000000000000000000000000000000000000000000000000000000600052601160045260246000fd5b6000612e0c8261228d565b91507fffffffffffffffffffffffffffffffffffffffffffffffffffffffffffffffff8203612e3e57612e3d612dd2565b5b600182019050919050565b6000612e548261228d565b9150612e5f8361228d565b925082821015612e7257612e71612dd2565b5b828203905092915050565b7f4d697373696e67206120546f6b656e205a65726f000000000000000000000000600082015250565b6000612eb3601483612420565b9150612ebe82612e7d565b602082019050919050565b60006020820190508181036000830152612ee281612ea6565b9050919050565b7f4d697373696e67206120546f6b656e204f6e6500000000000000000000000000600082015250565b6000612f1f601383612420565b9150612f2a82612ee9565b602082019050919050565b60006020820190508181036000830152612f4e81612f12565b9050919050565b7f4d697373696e67206120546f6b656e2054776f00000000000000000000000000600082015250565b6000612f8b601383612420565b9150612f9682612f55565b602082019050919050565b60006020820190508181036000830152612fba81612f7e565b9050919050565b7f455243313135353a2069647320616e6420616d6f756e7473206c656e6774682060008201527f6d69736d61746368000000000000000000000000000000000000000000000000602082015250565b600061301d602883612420565b915061302882612fc1565b604082019050919050565b6000602082019050818103600083015261304c81613010565b9050919050565b7f455243313135353a207472616e7366657220746f20746865207a65726f20616460008201527f6472657373000000000000000000000000000000000000000000000000000000602082015250565b60006130af602583612420565b91506130ba82613053565b604082019050919050565b600060208201905081810360008301526130de816130a2565b9050919050565b7f455243313135353a20696e73756666696369656e742062616c616e636520666f60008201527f72207472616e7366657200000000000000000000000000000000000000000000602082015250565b6000613141602a83612420565b915061314c826130e5565b604082019050919050565b6000602082019050818103600083015261317081613134565b9050919050565b60006131828261228d565b915061318d8361228d565b9250827fffffffffffffffffffffffffffffffffffffffffffffffffffffffffffffffff038211156131c2576131c1612dd2565b5b828201905092915050565b600060408201905081810360008301526131e78185612977565b905081810360208301526131fb8184612977565b90509392505050565b7f455243313135353a2073657474696e6720617070726f76616c2073746174757360008201527f20666f722073656c660000000000000000000000000000000000000000000000602082015250565b6000613260602983612420565b915061326b82613204565b604082019050919050565b6000602082019050818103600083015261328f81613253565b9050919050565b7f43616e206e6f74206275726e207468697320746f6b656e000000000000000000600082015250565b60006132cc601783612420565b91506132d782613296565b602082019050919050565b600060208201905081810360008301526132fb816132bf565b9050919050565b7f496e73756666696369656e7420546f6b656e7320746f206275726e0000000000600082015250565b6000613338601b83612420565b915061334382613302565b602082019050919050565b600060208201905081810360008301526133678161332b565b9050919050565b7f455243313135353a206275726e2066726f6d20746865207a65726f206164647260008201527f6573730000000000000000000000000000000000000000000000000000000000602082015250565b60006133ca602383612420565b91506133d58261336e565b604082019050919050565b600060208201905081810360008301526133f9816133bd565b9050919050565b7f455243313135353a206275726e20616d6f756e7420657863656564732062616c60008201527f616e636500000000000000000000000000000000000000000000000000000000602082015250565b600061345c602483612420565b915061346782613400565b604082019050919050565b6000602082019050818103600083015261348b8161344f565b9050919050565b60006040820190506134a76000830185612303565b6134b46020830184612303565b9392505050565b7f496e73756666696369656e7420546f6b656e7320746f205472616e7366657200600082015250565b60006134f1601f83612420565b91506134fc826134bb565b602082019050919050565b60006020820190508181036000830152613520816134e4565b9050919050565b7f53656c656374656420546f20546f6b656e2063616e206e6f742062652074726160008201527f6e73666572726564000000000000000000000000000000000000000000000000602082015250565b6000613583602883612420565b915061358e82613527565b604082019050919050565b600060208201905081810360008301526135b281613576565b9050919050565b7f455243313135353a206d696e7420746f20746865207a65726f2061646472657360008201527f7300000000000000000000000000000000000000000000000000000000000000602082015250565b6000613615602183612420565b9150613620826135b9565b604082019050919050565b6000602082019050818103600083015261364481613608565b9050919050565b6136548161224f565b82525050565b600081519050919050565b600082825260208201905092915050565b60006136818261365a565b61368b8185613665565b935061369b818560208601612431565b6136a481612464565b840191505092915050565b600060a0820190506136c4600083018861364b565b6136d1602083018761364b565b81810360408301526136e38186612977565b905081810360608301526136f78185612977565b9050818103608083015261370b8184613676565b90509695505050505050565b60008151905061372681612359565b92915050565b60006020828403121561374257613741612225565b5b600061375084828501613717565b91505092915050565b60008160e01c9050919050565b600060033d11156137855760046000803e613782600051613759565b90505b90565b600060443d106138155761379a61221b565b60043d036004823e80513d602482011167ffffffffffffffff821117156137c2575050613815565b808201805167ffffffffffffffff8111156137e05750505050613815565b80602083010160043d0385018111156137fd575050505050613815565b61380c82602001850186612544565b82955050505050505b90565b7f455243313135353a207472616e7366657220746f206e6f6e204552433131353560008201527f526563656976657220696d706c656d656e746572000000000000000000000000602082015250565b6000613874603483612420565b915061387f82613818565b604082019050919050565b600060208201905081810360008301526138a381613867565b9050919050565b7f455243313135353a204552433131353552656365697665722072656a6563746560008201527f6420746f6b656e73000000000000000000000000000000000000000000000000602082015250565b6000613906602883612420565b9150613911826138aa565b604082019050919050565b60006020820190508181036000830152613935816138f9565b9050919050565b600060a082019050613951600083018861364b565b61395e602083018761364b565b61396b6040830186612303565b6139786060830185612303565b818103608083015261398a8184613676565b9050969550505050505056fea2646970667358221220ee952d136da875a41656f0dd57c7a1152dfd4e762d7fbe06afb8993c2a055c4564736f6c634300080d0033697066733a2f2f62616679626569656c736e36346b66656e696a7071766d743577783576776d756862736462796e7175766a7932777377737869677067746a326a712f32697066733a2f2f62616679626569656c736e36346b66656e696a7071766d743577783576776d756862736462796e7175766a7932777377737869677067746a326a712f33697066733a2f2f62616679626569656c736e36346b66656e696a7071766d743577783576776d756862736462796e7175766a7932777377737869677067746a326a712f36697066733a2f2f62616679626569656c736e36346b66656e696a7071766d743577783576776d756862736462796e7175766a7932777377737869677067746a326a712f30697066733a2f2f626166796265696134657936616b356e6f64747171746e6f76366d687773793362347662736d6968706a756e6d6c7a787567623775746536336a34697066733a2f2f62616679626569656c736e36346b66656e696a7071766d743577783576776d756862736462796e7175766a7932777377737869677067746a326a71697066733a2f2f62616679626569656c736e36346b66656e696a7071766d743577783576776d756862736462796e7175766a7932777377737869677067746a326a712f35697066733a2f2f62616679626569656c736e36346b66656e696a7071766d743577783576776d756862736462796e7175766a7932777377737869677067746a326a712f31697066733a2f2f62616679626569656c736e36346b66656e696a7071766d743577783576776d756862736462796e7175766a7932777377737869677067746a326a712f34",
  "linkReferences": {},
  "deployedLinkReferences": {}
}