{
  "_format": "hh-sol-artifact-1",
  "contractName": "GameContract",
  "sourceName": "contracts/GameContract.sol",
  "abi": [
    {
      "inputs": [
        {
          "internalType": "contract ERC1155BaseContract",
          "name": "initialContract",
          "type": "address"
        }
      ],
      "stateMutability": "nonpayable",
      "type": "constructor"
    },
    {
      "inputs": [],
      "name": "CanNotBurnThisToken",
      "type": "error"
    },
    {
      "inputs": [],
      "name": "CanNotReceiveThisTokenByTrading",
      "type": "error"
    },
    {
      "inputs": [],
      "name": "InSufficientMatic",
      "type": "error"
    },
    {
      "inputs": [],
      "name": "InsufficientTokens",
      "type": "error"
    },
    {
      "inputs": [],
      "name": "InsufficientTokensToTransfer",
      "type": "error"
    },
    {
      "inputs": [],
      "name": "InvalidWalletAddress",
      "type": "error"
    },
    {
      "inputs": [],
      "name": "TokenAmountCanNotBeZero",
      "type": "error"
    },
    {
      "inputs": [],
      "name": "TokenCanNotBeTradedForEqualTokenId",
      "type": "error"
    },
    {
      "inputs": [],
      "name": "TokenDoesNotExist",
      "type": "error"
    },
    {
      "anonymous": false,
      "inputs": [
        {
          "indexed": false,
          "internalType": "address",
          "name": "observer",
          "type": "address"
        }
      ],
      "name": "ActionNotifier",
      "type": "event"
    },
    {
      "anonymous": false,
      "inputs": [
        {
          "indexed": true,
          "internalType": "address",
          "name": "previousOwner",
          "type": "address"
        },
        {
          "indexed": true,
          "internalType": "address",
          "name": "newOwner",
          "type": "address"
        }
      ],
      "name": "OwnershipTransferred",
      "type": "event"
    },
    {
      "inputs": [
        {
          "internalType": "address",
          "name": "account",
          "type": "address"
        },
        {
          "internalType": "uint256",
          "name": "tokenId",
          "type": "uint256"
        }
      ],
      "name": "balanceOf",
      "outputs": [
        {
          "internalType": "uint256",
          "name": "returningBalance",
          "type": "uint256"
        }
      ],
      "stateMutability": "view",
      "type": "function"
    },
    {
      "inputs": [
        {
          "internalType": "uint256",
          "name": "tokenId",
          "type": "uint256"
        }
      ],
      "name": "getMiningPriceForToken",
      "outputs": [
        {
          "internalType": "uint256",
          "name": "price",
          "type": "uint256"
        }
      ],
      "stateMutability": "view",
      "type": "function"
    },
    {
      "inputs": [],
      "name": "owner",
      "outputs": [
        {
          "internalType": "address",
          "name": "",
          "type": "address"
        }
      ],
      "stateMutability": "view",
      "type": "function"
    },
    {
      "inputs": [],
      "name": "renounceOwnership",
      "outputs": [],
      "stateMutability": "nonpayable",
      "type": "function"
    },
    {
      "inputs": [],
      "name": "setInitialTokenURI",
      "outputs": [],
      "stateMutability": "nonpayable",
      "type": "function"
    },
    {
      "inputs": [
        {
          "internalType": "uint256",
          "name": "tokenId",
          "type": "uint256"
        },
        {
          "internalType": "uint256",
          "name": "amount",
          "type": "uint256"
        }
      ],
      "name": "startBurningToken",
      "outputs": [],
      "stateMutability": "nonpayable",
      "type": "function"
    },
    {
      "inputs": [
        {
          "internalType": "uint256",
          "name": "tokenId",
          "type": "uint256"
        },
        {
          "internalType": "uint256",
          "name": "amount",
          "type": "uint256"
        }
      ],
      "name": "startMintingToken",
      "outputs": [],
      "stateMutability": "payable",
      "type": "function"
    },
    {
      "inputs": [
        {
          "internalType": "uint256",
          "name": "fromTokenId",
          "type": "uint256"
        },
        {
          "internalType": "uint256",
          "name": "toTokenId",
          "type": "uint256"
        },
        {
          "internalType": "uint256",
          "name": "amount",
          "type": "uint256"
        }
      ],
      "name": "startTransferringToken",
      "outputs": [],
      "stateMutability": "nonpayable",
      "type": "function"
    },
    {
      "inputs": [
        {
          "internalType": "address",
          "name": "newOwner",
          "type": "address"
        }
      ],
      "name": "transferOwnership",
      "outputs": [],
      "stateMutability": "nonpayable",
      "type": "function"
    }
  ],
  "bytecode": "0x60806040523480156200001157600080fd5b5060405162002fc338038062002fc38339818101604052810190620000379190620001ed565b8080620000596200004d620000a360201b60201c565b620000ab60201b60201c565b80600160006101000a81548173ffffffffffffffffffffffffffffffffffffffff021916908373ffffffffffffffffffffffffffffffffffffffff1602179055505050506200021f565b600033905090565b60008060009054906101000a900473ffffffffffffffffffffffffffffffffffffffff169050816000806101000a81548173ffffffffffffffffffffffffffffffffffffffff021916908373ffffffffffffffffffffffffffffffffffffffff1602179055508173ffffffffffffffffffffffffffffffffffffffff168173ffffffffffffffffffffffffffffffffffffffff167f8be0079c531659141344cd1fd0a4f28419497f9722a3daafe3b4186f6b6457e060405160405180910390a35050565b600080fd5b600073ffffffffffffffffffffffffffffffffffffffff82169050919050565b6000620001a18262000174565b9050919050565b6000620001b58262000194565b9050919050565b620001c781620001a8565b8114620001d357600080fd5b50565b600081519050620001e781620001bc565b92915050565b6000602082840312156200020657620002056200016f565b5b60006200021684828501620001d6565b91505092915050565b612d94806200022f6000396000f3fe6080604052600436106100855760003560e01c80638da5cb5b116100595780638da5cb5b14610111578063a73e4c081461013c578063dd9a2d7b14610165578063dfacf8e01461018e578063f2fde38b146101cb57610085565b8062fdd58e1461008a578063290b6802146100c7578063715018a6146100e357806382bc088d146100fa575b600080fd5b34801561009657600080fd5b506100b160048036038101906100ac9190612082565b6101f4565b6040516100be91906120d1565b60405180910390f35b6100e160048036038101906100dc91906120ec565b61029b565b005b3480156100ef57600080fd5b506100f8610317565b005b34801561010657600080fd5b5061010f61032b565b005b34801561011d57600080fd5b5061012661072f565b604051610133919061213b565b60405180910390f35b34801561014857600080fd5b50610163600480360381019061015e91906120ec565b610758565b005b34801561017157600080fd5b5061018c60048036038101906101879190612156565b61084a565b005b34801561019a57600080fd5b506101b560048036038101906101b091906121a9565b6109f0565b6040516101c291906120d1565b60405180910390f35b3480156101d757600080fd5b506101f260048036038101906101ed91906121d6565b610a0d565b005b6000600160009054906101000a900473ffffffffffffffffffffffffffffffffffffffff1673ffffffffffffffffffffffffffffffffffffffff1662fdd58e84846040518363ffffffff1660e01b8152600401610252929190612203565b602060405180830381865afa15801561026f573d6000803e3d6000fd5b505050506040513d601f19601f820116820180604052508101906102939190612241565b905092915050565b6102a482610a90565b6102ad81610aea565b6102b78282610b27565b506102c1336113dd565b60006102cc836109f0565b905080341015610308576040517fe0dc90d100000000000000000000000000000000000000000000000000000000815260040160405180910390fd5b6103128383611469565b505050565b61031f61156a565b61032960006115e8565b565b61033361156a565b600160009054906101000a900473ffffffffffffffffffffffffffffffffffffffff1673ffffffffffffffffffffffffffffffffffffffff1663ff7f44b960006040518263ffffffff1660e01b815260040161038f919061235c565b600060405180830381600087803b1580156103a957600080fd5b505af11580156103bd573d6000803e3d6000fd5b50505050600160009054906101000a900473ffffffffffffffffffffffffffffffffffffffff1673ffffffffffffffffffffffffffffffffffffffff1663ff7f44b960016040518263ffffffff1660e01b815260040161041d919061245d565b600060405180830381600087803b15801561043757600080fd5b505af115801561044b573d6000803e3d6000fd5b50505050600160009054906101000a900473ffffffffffffffffffffffffffffffffffffffff1673ffffffffffffffffffffffffffffffffffffffff1663ff7f44b960026040518263ffffffff1660e01b81526004016104ab919061255e565b600060405180830381600087803b1580156104c557600080fd5b505af11580156104d9573d6000803e3d6000fd5b50505050600160009054906101000a900473ffffffffffffffffffffffffffffffffffffffff1673ffffffffffffffffffffffffffffffffffffffff1663ff7f44b960036040518263ffffffff1660e01b8152600401610539919061265f565b600060405180830381600087803b15801561055357600080fd5b505af1158015610567573d6000803e3d6000fd5b50505050600160009054906101000a900473ffffffffffffffffffffffffffffffffffffffff1673ffffffffffffffffffffffffffffffffffffffff1663ff7f44b960046040518263ffffffff1660e01b81526004016105c79190612760565b600060405180830381600087803b1580156105e157600080fd5b505af11580156105f5573d6000803e3d6000fd5b50505050600160009054906101000a900473ffffffffffffffffffffffffffffffffffffffff1673ffffffffffffffffffffffffffffffffffffffff1663ff7f44b960056040518263ffffffff1660e01b81526004016106559190612861565b600060405180830381600087803b15801561066f57600080fd5b505af1158015610683573d6000803e3d6000fd5b50505050600160009054906101000a900473ffffffffffffffffffffffffffffffffffffffff1673ffffffffffffffffffffffffffffffffffffffff1663ff7f44b960066040518263ffffffff1660e01b81526004016106e39190612962565b600060405180830381600087803b1580156106fd57600080fd5b505af1158015610711573d6000803e3d6000fd5b5050505061071d6116ac565b6107256117b8565b61072d6118f4565b565b60008060009054906101000a900473ffffffffffffffffffffffffffffffffffffffff16905090565b61076182610a90565b61076a81610aea565b61077482826119bf565b5061077e336113dd565b600160009054906101000a900473ffffffffffffffffffffffffffffffffffffffff1673ffffffffffffffffffffffffffffffffffffffff1663ed8c59383384846040518463ffffffff1660e01b81526004016107dd93929190612990565b600060405180830381600087803b1580156107f757600080fd5b505af115801561080b573d6000803e3d6000fd5b505050507f8e86b1657c6adc5c8e5397acd76303054a5acf8b756882d55e1c32badc419a7d3360405161083e919061213b565b60405180910390a15050565b6108548383611b85565b61085d83610a90565b61086682610a90565b61086f81610aea565b61087b83826001611bc2565b5061088882826000611bc2565b50610892336113dd565b600160009054906101000a900473ffffffffffffffffffffffffffffffffffffffff1673ffffffffffffffffffffffffffffffffffffffff1663ed8c59383385846040518463ffffffff1660e01b81526004016108f193929190612990565b600060405180830381600087803b15801561090b57600080fd5b505af115801561091f573d6000803e3d6000fd5b50505050600160009054906101000a900473ffffffffffffffffffffffffffffffffffffffff1673ffffffffffffffffffffffffffffffffffffffff166323a36d2b3384846040518463ffffffff1660e01b815260040161098293929190612990565b600060405180830381600087803b15801561099c57600080fd5b505af11580156109b0573d6000803e3d6000fd5b505050507f8e86b1657c6adc5c8e5397acd76303054a5acf8b756882d55e1c32badc419a7d336040516109e3919061213b565b60405180910390a1505050565b600060046000838152602001908152602001600020549050919050565b610a1561156a565b600073ffffffffffffffffffffffffffffffffffffffff168173ffffffffffffffffffffffffffffffffffffffff1603610a84576040517f08c379a0000000000000000000000000000000000000000000000000000000008152600401610a7b90612a39565b60405180910390fd5b610a8d816115e8565b50565b6002600082815260200190815260200160002060009054906101000a900460ff16610ae7576040517fceea21b600000000000000000000000000000000000000000000000000000000815260040160405180910390fd5b50565b60008103610b24576040517f81c0d0de00000000000000000000000000000000000000000000000000000000815260040160405180910390fd5b50565b600080831480610b375750600183145b80610b425750600283145b15610b5057600190506113d7565b60038303610d3757600182610b659190612a88565b600160009054906101000a900473ffffffffffffffffffffffffffffffffffffffff1673ffffffffffffffffffffffffffffffffffffffff1662fdd58e3360006040518363ffffffff1660e01b8152600401610bc2929190612abc565b602060405180830381865afa158015610bdf573d6000803e3d6000fd5b505050506040513d601f19601f82011682018060405250810190610c039190612241565b11610c43576040517f08c379a0000000000000000000000000000000000000000000000000000000008152600401610c3a90612b31565b60405180910390fd5b600182610c509190612a88565b600160009054906101000a900473ffffffffffffffffffffffffffffffffffffffff1673ffffffffffffffffffffffffffffffffffffffff1662fdd58e3360016040518363ffffffff1660e01b8152600401610cad929190612b51565b602060405180830381865afa158015610cca573d6000803e3d6000fd5b505050506040513d601f19601f82011682018060405250810190610cee9190612241565b11610d2e576040517f08c379a0000000000000000000000000000000000000000000000000000000008152600401610d2590612bc6565b60405180910390fd5b600190506113d6565b60048303610f1e57600182610d4c9190612a88565b600160009054906101000a900473ffffffffffffffffffffffffffffffffffffffff1673ffffffffffffffffffffffffffffffffffffffff1662fdd58e3360016040518363ffffffff1660e01b8152600401610da9929190612b51565b602060405180830381865afa158015610dc6573d6000803e3d6000fd5b505050506040513d601f19601f82011682018060405250810190610dea9190612241565b11610e2a576040517f08c379a0000000000000000000000000000000000000000000000000000000008152600401610e2190612bc6565b60405180910390fd5b600182610e379190612a88565b600160009054906101000a900473ffffffffffffffffffffffffffffffffffffffff1673ffffffffffffffffffffffffffffffffffffffff1662fdd58e3360026040518363ffffffff1660e01b8152600401610e94929190612be6565b602060405180830381865afa158015610eb1573d6000803e3d6000fd5b505050506040513d601f19601f82011682018060405250810190610ed59190612241565b11610f15576040517f08c379a0000000000000000000000000000000000000000000000000000000008152600401610f0c90612c5b565b60405180910390fd5b600190506113d5565b6005830361110557600182610f339190612a88565b600160009054906101000a900473ffffffffffffffffffffffffffffffffffffffff1673ffffffffffffffffffffffffffffffffffffffff1662fdd58e3360006040518363ffffffff1660e01b8152600401610f90929190612abc565b602060405180830381865afa158015610fad573d6000803e3d6000fd5b505050506040513d601f19601f82011682018060405250810190610fd19190612241565b11611011576040517f08c379a000000000000000000000000000000000000000000000000000000000815260040161100890612b31565b60405180910390fd5b60018261101e9190612a88565b600160009054906101000a900473ffffffffffffffffffffffffffffffffffffffff1673ffffffffffffffffffffffffffffffffffffffff1662fdd58e3360026040518363ffffffff1660e01b815260040161107b929190612be6565b602060405180830381865afa158015611098573d6000803e3d6000fd5b505050506040513d601f19601f820116820180604052508101906110bc9190612241565b116110fc576040517f08c379a00000000000000000000000000000000000000000000000000000000081526004016110f390612c5b565b60405180910390fd5b600190506113d4565b600683036113d35760018261111a9190612a88565b600160009054906101000a900473ffffffffffffffffffffffffffffffffffffffff1673ffffffffffffffffffffffffffffffffffffffff1662fdd58e3360006040518363ffffffff1660e01b8152600401611177929190612abc565b602060405180830381865afa158015611194573d6000803e3d6000fd5b505050506040513d601f19601f820116820180604052508101906111b89190612241565b116111f8576040517f08c379a00000000000000000000000000000000000000000000000000000000081526004016111ef90612b31565b60405180910390fd5b6001826112059190612a88565b600160009054906101000a900473ffffffffffffffffffffffffffffffffffffffff1673ffffffffffffffffffffffffffffffffffffffff1662fdd58e3360016040518363ffffffff1660e01b8152600401611262929190612b51565b602060405180830381865afa15801561127f573d6000803e3d6000fd5b505050506040513d601f19601f820116820180604052508101906112a39190612241565b116112e3576040517f08c379a00000000000000000000000000000000000000000000000000000000081526004016112da90612bc6565b60405180910390fd5b6001826112f09190612a88565b600160009054906101000a900473ffffffffffffffffffffffffffffffffffffffff1673ffffffffffffffffffffffffffffffffffffffff1662fdd58e3360026040518363ffffffff1660e01b815260040161134d929190612be6565b602060405180830381865afa15801561136a573d6000803e3d6000fd5b505050506040513d601f19601f8201168201806040525081019061138e9190612241565b116113ce576040517f08c379a00000000000000000000000000000000000000000000000000000000081526004016113c590612c5b565b60405180910390fd5b600190505b5b5b5b5b92915050565b600073ffffffffffffffffffffffffffffffffffffffff168173ffffffffffffffffffffffffffffffffffffffff16148061142f575060008173ffffffffffffffffffffffffffffffffffffffff163b115b15611466576040517fa5f90a1100000000000000000000000000000000000000000000000000000000815260040160405180910390fd5b50565b60038214806114785750600482145b806114835750600582145b8061148e5750600682145b1561149e5761149d8282611e27565b5b600160009054906101000a900473ffffffffffffffffffffffffffffffffffffffff1673ffffffffffffffffffffffffffffffffffffffff166323a36d2b3384846040518463ffffffff1660e01b81526004016114fd93929190612990565b600060405180830381600087803b15801561151757600080fd5b505af115801561152b573d6000803e3d6000fd5b505050507f8e86b1657c6adc5c8e5397acd76303054a5acf8b756882d55e1c32badc419a7d3360405161155e919061213b565b60405180910390a15050565b611572611f20565b73ffffffffffffffffffffffffffffffffffffffff1661159061072f565b73ffffffffffffffffffffffffffffffffffffffff16146115e6576040517f08c379a00000000000000000000000000000000000000000000000000000000081526004016115dd90612cc7565b60405180910390fd5b565b60008060009054906101000a900473ffffffffffffffffffffffffffffffffffffffff169050816000806101000a81548173ffffffffffffffffffffffffffffffffffffffff021916908373ffffffffffffffffffffffffffffffffffffffff1602179055508173ffffffffffffffffffffffffffffffffffffffff168173ffffffffffffffffffffffffffffffffffffffff167f8be0079c531659141344cd1fd0a4f28419497f9722a3daafe3b4186f6b6457e060405160405180910390a35050565b6040518060400160405280600060ff168152602001600160ff1681525060036000600381526020019081526020016000209060026116eb929190611f28565b506040518060400160405280600160ff168152602001600260ff16815250600360006004815260200190815260200160002090600261172b929190611f28565b506040518060400160405280600060ff168152602001600260ff16815250600360006005815260200190815260200160002090600261176b929190611f28565b506040518060600160405280600060ff168152602001600160ff168152602001600260ff1681525060036000600681526020019081526020016000209060036117b5929190611f7a565b50565b60016002600080815260200190815260200160002060006101000a81548160ff0219169083151502179055506001600260006001815260200190815260200160002060006101000a81548160ff0219169083151502179055506001600260006002815260200190815260200160002060006101000a81548160ff0219169083151502179055506001600260006003815260200190815260200160002060006101000a81548160ff0219169083151502179055506001600260006004815260200190815260200160002060006101000a81548160ff0219169083151502179055506001600260006005815260200190815260200160002060006101000a81548160ff0219169083151502179055506001600260006006815260200190815260200160002060006101000a81548160ff021916908315150217905550565b6000600460008081526020019081526020016000208190555060006004600060018152602001908152602001600020819055506000600460006002815260200190815260200160002081905550655af3107a4000600460006003815260200190815260200160002081905550655af3107a4000600460006004815260200190815260200160002081905550655af3107a4000600460006005815260200190815260200160002081905550655af3107a4000600460006006815260200190815260200160002081905550565b60008083036119fa576040517f70e84e4400000000000000000000000000000000000000000000000000000000815260040160405180910390fd5b60018303611a34576040517f70e84e4400000000000000000000000000000000000000000000000000000000815260040160405180910390fd5b60028303611a6e576040517f70e84e4400000000000000000000000000000000000000000000000000000000815260040160405180910390fd5b6003831480611a7d5750600483145b80611a885750600583145b80611a935750600683145b8015611a9f5750600082115b15611b7f5781600160009054906101000a900473ffffffffffffffffffffffffffffffffffffffff1673ffffffffffffffffffffffffffffffffffffffff1662fdd58e33866040518363ffffffff1660e01b8152600401611b01929190612203565b602060405180830381865afa158015611b1e573d6000803e3d6000fd5b505050506040513d601f19601f82011682018060405250810190611b429190612241565b1015611b7a576040517ff1b7e15e00000000000000000000000000000000000000000000000000000000815260040160405180910390fd5b600190505b92915050565b808203611bbe576040517fc470967a00000000000000000000000000000000000000000000000000000000815260040160405180910390fd5b5050565b600081611cb25760038403611c03576040517fb60a432700000000000000000000000000000000000000000000000000000000815260040160405180910390fd5b60048403611c3d576040517fb60a432700000000000000000000000000000000000000000000000000000000815260040160405180910390fd5b60058403611c77576040517fb60a432700000000000000000000000000000000000000000000000000000000815260040160405180910390fd5b60068403611cb1576040517fb60a432700000000000000000000000000000000000000000000000000000000815260040160405180910390fd5b5b6000841480611cc15750600184145b80611ccc5750600284145b80611cd75750600384145b80611ce25750600484145b80611ced5750600584145b80611cf85750600684145b8015611d045750600083115b8015611d0d5750815b15611df15782600160009054906101000a900473ffffffffffffffffffffffffffffffffffffffff1673ffffffffffffffffffffffffffffffffffffffff1662fdd58e33876040518363ffffffff1660e01b8152600401611d6f929190612203565b602060405180830381865afa158015611d8c573d6000803e3d6000fd5b505050506040513d601f19601f82011682018060405250810190611db09190612241565b1015611de8576040517f575542dd00000000000000000000000000000000000000000000000000000000815260040160405180910390fd5b60019050611e20565b6000841480611e005750600184145b80611e0b5750600284145b8015611e15575081155b15611e1f57600190505b5b9392505050565b60005b6003600084815260200190815260200160002080549050811015611f1b57600160009054906101000a900473ffffffffffffffffffffffffffffffffffffffff1673ffffffffffffffffffffffffffffffffffffffff1663ed8c593833600360008781526020019081526020016000208481548110611eac57611eab612ce7565b5b9060005260206000200154856040518463ffffffff1660e01b8152600401611ed693929190612990565b600060405180830381600087803b158015611ef057600080fd5b505af1158015611f04573d6000803e3d6000fd5b505050508080611f1390612d16565b915050611e2a565b505050565b600033905090565b828054828255906000526020600020908101928215611f69579160200282015b82811115611f68578251829060ff16905591602001919060010190611f48565b5b509050611f769190611fcc565b5090565b828054828255906000526020600020908101928215611fbb579160200282015b82811115611fba578251829060ff16905591602001919060010190611f9a565b5b509050611fc89190611fcc565b5090565b5b80821115611fe5576000816000905550600101611fcd565b5090565b600080fd5b600073ffffffffffffffffffffffffffffffffffffffff82169050919050565b600061201982611fee565b9050919050565b6120298161200e565b811461203457600080fd5b50565b60008135905061204681612020565b92915050565b6000819050919050565b61205f8161204c565b811461206a57600080fd5b50565b60008135905061207c81612056565b92915050565b6000806040838503121561209957612098611fe9565b5b60006120a785828601612037565b92505060206120b88582860161206d565b9150509250929050565b6120cb8161204c565b82525050565b60006020820190506120e660008301846120c2565b92915050565b6000806040838503121561210357612102611fe9565b5b60006121118582860161206d565b92505060206121228582860161206d565b9150509250929050565b6121358161200e565b82525050565b6000602082019050612150600083018461212c565b92915050565b60008060006060848603121561216f5761216e611fe9565b5b600061217d8682870161206d565b935050602061218e8682870161206d565b925050604061219f8682870161206d565b9150509250925092565b6000602082840312156121bf576121be611fe9565b5b60006121cd8482850161206d565b91505092915050565b6000602082840312156121ec576121eb611fe9565b5b60006121fa84828501612037565b91505092915050565b6000604082019050612218600083018561212c565b61222560208301846120c2565b9392505050565b60008151905061223b81612056565b92915050565b60006020828403121561225757612256611fe9565b5b60006122658482850161222c565b91505092915050565b6000819050919050565b6000819050919050565b600061229d6122986122938461226e565b612278565b61204c565b9050919050565b6122ad81612282565b82525050565b600082825260208201905092915050565b7f697066733a2f2f62616679626569656c736e36346b66656e696a7071766d743560008201527f77783576776d756862736462796e7175766a7932777377737869677067746a3260208201527f6a712f3000000000000000000000000000000000000000000000000000000000604082015250565b60006123466044836122b3565b9150612351826122c4565b606082019050919050565b600060408201905061237160008301846122a4565b818103602083015261238281612339565b905092915050565b6000819050919050565b60006123af6123aa6123a58461238a565b612278565b61204c565b9050919050565b6123bf81612394565b82525050565b7f697066733a2f2f62616679626569656c736e36346b66656e696a7071766d743560008201527f77783576776d756862736462796e7175766a7932777377737869677067746a3260208201527f6a712f3100000000000000000000000000000000000000000000000000000000604082015250565b60006124476044836122b3565b9150612452826123c5565b606082019050919050565b600060408201905061247260008301846123b6565b81810360208301526124838161243a565b905092915050565b6000819050919050565b60006124b06124ab6124a68461248b565b612278565b61204c565b9050919050565b6124c081612495565b82525050565b7f697066733a2f2f62616679626569656c736e36346b66656e696a7071766d743560008201527f77783576776d756862736462796e7175766a7932777377737869677067746a3260208201527f6a712f3200000000000000000000000000000000000000000000000000000000604082015250565b60006125486044836122b3565b9150612553826124c6565b606082019050919050565b600060408201905061257360008301846124b7565b81810360208301526125848161253b565b905092915050565b6000819050919050565b60006125b16125ac6125a78461258c565b612278565b61204c565b9050919050565b6125c181612596565b82525050565b7f697066733a2f2f62616679626569656c736e36346b66656e696a7071766d743560008201527f77783576776d756862736462796e7175766a7932777377737869677067746a3260208201527f6a712f3300000000000000000000000000000000000000000000000000000000604082015250565b60006126496044836122b3565b9150612654826125c7565b606082019050919050565b600060408201905061267460008301846125b8565b81810360208301526126858161263c565b905092915050565b6000819050919050565b60006126b26126ad6126a88461268d565b612278565b61204c565b9050919050565b6126c281612697565b82525050565b7f697066733a2f2f62616679626569656c736e36346b66656e696a7071766d743560008201527f77783576776d756862736462796e7175766a7932777377737869677067746a3260208201527f6a712f3400000000000000000000000000000000000000000000000000000000604082015250565b600061274a6044836122b3565b9150612755826126c8565b606082019050919050565b600060408201905061277560008301846126b9565b81810360208301526127868161273d565b905092915050565b6000819050919050565b60006127b36127ae6127a98461278e565b612278565b61204c565b9050919050565b6127c381612798565b82525050565b7f697066733a2f2f62616679626569656c736e36346b66656e696a7071766d743560008201527f77783576776d756862736462796e7175766a7932777377737869677067746a3260208201527f6a712f3500000000000000000000000000000000000000000000000000000000604082015250565b600061284b6044836122b3565b9150612856826127c9565b606082019050919050565b600060408201905061287660008301846127ba565b81810360208301526128878161283e565b905092915050565b6000819050919050565b60006128b46128af6128aa8461288f565b612278565b61204c565b9050919050565b6128c481612899565b82525050565b7f697066733a2f2f62616679626569656c736e36346b66656e696a7071766d743560008201527f77783576776d756862736462796e7175766a7932777377737869677067746a3260208201527f6a712f3600000000000000000000000000000000000000000000000000000000604082015250565b600061294c6044836122b3565b9150612957826128ca565b606082019050919050565b600060408201905061297760008301846128bb565b81810360208301526129888161293f565b905092915050565b60006060820190506129a5600083018661212c565b6129b260208301856120c2565b6129bf60408301846120c2565b949350505050565b7f4f776e61626c653a206e6577206f776e657220697320746865207a65726f206160008201527f6464726573730000000000000000000000000000000000000000000000000000602082015250565b6000612a236026836122b3565b9150612a2e826129c7565b604082019050919050565b60006020820190508181036000830152612a5281612a16565b9050919050565b7f4e487b7100000000000000000000000000000000000000000000000000000000600052601160045260246000fd5b6000612a938261204c565b9150612a9e8361204c565b925082821015612ab157612ab0612a59565b5b828203905092915050565b6000604082019050612ad1600083018561212c565b612ade60208301846122a4565b9392505050565b7f4d697373696e67206120546f6b656e205a65726f000000000000000000000000600082015250565b6000612b1b6014836122b3565b9150612b2682612ae5565b602082019050919050565b60006020820190508181036000830152612b4a81612b0e565b9050919050565b6000604082019050612b66600083018561212c565b612b7360208301846123b6565b9392505050565b7f4d697373696e67206120546f6b656e204f6e6500000000000000000000000000600082015250565b6000612bb06013836122b3565b9150612bbb82612b7a565b602082019050919050565b60006020820190508181036000830152612bdf81612ba3565b9050919050565b6000604082019050612bfb600083018561212c565b612c0860208301846124b7565b9392505050565b7f4d697373696e67206120546f6b656e2054776f00000000000000000000000000600082015250565b6000612c456013836122b3565b9150612c5082612c0f565b602082019050919050565b60006020820190508181036000830152612c7481612c38565b9050919050565b7f4f776e61626c653a2063616c6c6572206973206e6f7420746865206f776e6572600082015250565b6000612cb16020836122b3565b9150612cbc82612c7b565b602082019050919050565b60006020820190508181036000830152612ce081612ca4565b9050919050565b7f4e487b7100000000000000000000000000000000000000000000000000000000600052603260045260246000fd5b6000612d218261204c565b91507fffffffffffffffffffffffffffffffffffffffffffffffffffffffffffffffff8203612d5357612d52612a59565b5b60018201905091905056fea2646970667358221220b2b1b030a621987a134e6395cdc349cc13e9fe7f487b3c2f3bafbb178901825764736f6c634300080d0033",
  "linkReferences": {},
  "deployedLinkReferences": {}
}