{
  "_format": "hh-sol-artifact-1",
  "contractName": "ERC1155Contract",
  "sourceName": "contracts/ERC1155Contract.sol",
  "abi": [
    {
      "inputs": [],
      "stateMutability": "nonpayable",
      "type": "constructor"
    },
    {
      "inputs": [],
      "name": "InSufficientMatic",
      "type": "error"
    },
    {
      "inputs": [],
      "name": "InvalidWalletAddress",
      "type": "error"
    },
    {
      "inputs": [],
      "name": "TokenAmountCanNotBeZero",
      "type": "error"
    },
    {
      "anonymous": false,
      "inputs": [
        {
          "indexed": false,
          "internalType": "address",
          "name": "observer",
          "type": "address"
        }
      ],
      "name": "ActionNotifier",
      "type": "event"
    },
    {
      "anonymous": false,
      "inputs": [
        {
          "indexed": true,
          "internalType": "address",
          "name": "account",
          "type": "address"
        },
        {
          "indexed": true,
          "internalType": "address",
          "name": "operator",
          "type": "address"
        },
        {
          "indexed": false,
          "internalType": "bool",
          "name": "approved",
          "type": "bool"
        }
      ],
      "name": "ApprovalForAll",
      "type": "event"
    },
    {
      "anonymous": false,
      "inputs": [
        {
          "indexed": true,
          "internalType": "address",
          "name": "operator",
          "type": "address"
        },
        {
          "indexed": true,
          "internalType": "address",
          "name": "from",
          "type": "address"
        },
        {
          "indexed": true,
          "internalType": "address",
          "name": "to",
          "type": "address"
        },
        {
          "indexed": false,
          "internalType": "uint256[]",
          "name": "ids",
          "type": "uint256[]"
        },
        {
          "indexed": false,
          "internalType": "uint256[]",
          "name": "values",
          "type": "uint256[]"
        }
      ],
      "name": "TransferBatch",
      "type": "event"
    },
    {
      "anonymous": false,
      "inputs": [
        {
          "indexed": true,
          "internalType": "address",
          "name": "operator",
          "type": "address"
        },
        {
          "indexed": true,
          "internalType": "address",
          "name": "from",
          "type": "address"
        },
        {
          "indexed": true,
          "internalType": "address",
          "name": "to",
          "type": "address"
        },
        {
          "indexed": false,
          "internalType": "uint256",
          "name": "id",
          "type": "uint256"
        },
        {
          "indexed": false,
          "internalType": "uint256",
          "name": "value",
          "type": "uint256"
        }
      ],
      "name": "TransferSingle",
      "type": "event"
    },
    {
      "anonymous": false,
      "inputs": [
        {
          "indexed": false,
          "internalType": "string",
          "name": "value",
          "type": "string"
        },
        {
          "indexed": true,
          "internalType": "uint256",
          "name": "id",
          "type": "uint256"
        }
      ],
      "name": "URI",
      "type": "event"
    },
    {
      "inputs": [
        {
          "internalType": "address",
          "name": "account",
          "type": "address"
        },
        {
          "internalType": "uint256",
          "name": "id",
          "type": "uint256"
        }
      ],
      "name": "balanceOf",
      "outputs": [
        {
          "internalType": "uint256",
          "name": "",
          "type": "uint256"
        }
      ],
      "stateMutability": "view",
      "type": "function"
    },
    {
      "inputs": [
        {
          "internalType": "address[]",
          "name": "accounts",
          "type": "address[]"
        },
        {
          "internalType": "uint256[]",
          "name": "ids",
          "type": "uint256[]"
        }
      ],
      "name": "balanceOfBatch",
      "outputs": [
        {
          "internalType": "uint256[]",
          "name": "",
          "type": "uint256[]"
        }
      ],
      "stateMutability": "view",
      "type": "function"
    },
    {
      "inputs": [
        {
          "internalType": "address",
          "name": "userAddress",
          "type": "address"
        }
      ],
      "name": "getAllTokenBalances",
      "outputs": [
        {
          "internalType": "uint256[]",
          "name": "",
          "type": "uint256[]"
        }
      ],
      "stateMutability": "view",
      "type": "function"
    },
    {
      "inputs": [
        {
          "internalType": "address",
          "name": "account",
          "type": "address"
        },
        {
          "internalType": "address",
          "name": "operator",
          "type": "address"
        }
      ],
      "name": "isApprovedForAll",
      "outputs": [
        {
          "internalType": "bool",
          "name": "",
          "type": "bool"
        }
      ],
      "stateMutability": "view",
      "type": "function"
    },
    {
      "inputs": [
        {
          "internalType": "address",
          "name": "from",
          "type": "address"
        },
        {
          "internalType": "address",
          "name": "to",
          "type": "address"
        },
        {
          "internalType": "uint256[]",
          "name": "ids",
          "type": "uint256[]"
        },
        {
          "internalType": "uint256[]",
          "name": "amounts",
          "type": "uint256[]"
        },
        {
          "internalType": "bytes",
          "name": "data",
          "type": "bytes"
        }
      ],
      "name": "safeBatchTransferFrom",
      "outputs": [],
      "stateMutability": "nonpayable",
      "type": "function"
    },
    {
      "inputs": [
        {
          "internalType": "address",
          "name": "from",
          "type": "address"
        },
        {
          "internalType": "address",
          "name": "to",
          "type": "address"
        },
        {
          "internalType": "uint256",
          "name": "id",
          "type": "uint256"
        },
        {
          "internalType": "uint256",
          "name": "amount",
          "type": "uint256"
        },
        {
          "internalType": "bytes",
          "name": "data",
          "type": "bytes"
        }
      ],
      "name": "safeTransferFrom",
      "outputs": [],
      "stateMutability": "nonpayable",
      "type": "function"
    },
    {
      "inputs": [
        {
          "internalType": "address",
          "name": "operator",
          "type": "address"
        },
        {
          "internalType": "bool",
          "name": "approved",
          "type": "bool"
        }
      ],
      "name": "setApprovalForAll",
      "outputs": [],
      "stateMutability": "nonpayable",
      "type": "function"
    },
    {
      "inputs": [
        {
          "internalType": "uint256",
          "name": "tokenId",
          "type": "uint256"
        },
        {
          "internalType": "uint256",
          "name": "amount",
          "type": "uint256"
        }
      ],
      "name": "startBurningToken",
      "outputs": [],
      "stateMutability": "payable",
      "type": "function"
    },
    {
      "inputs": [
        {
          "internalType": "uint256",
          "name": "tokenId",
          "type": "uint256"
        },
        {
          "internalType": "uint256",
          "name": "amount",
          "type": "uint256"
        }
      ],
      "name": "startMintingToken",
      "outputs": [],
      "stateMutability": "payable",
      "type": "function"
    },
    {
      "inputs": [
        {
          "internalType": "uint256",
          "name": "fromTokenId",
          "type": "uint256"
        },
        {
          "internalType": "uint256",
          "name": "toTokenId",
          "type": "uint256"
        },
        {
          "internalType": "uint256",
          "name": "amount",
          "type": "uint256"
        }
      ],
      "name": "startTransferringToken",
      "outputs": [],
      "stateMutability": "payable",
      "type": "function"
    },
    {
      "inputs": [
        {
          "internalType": "bytes4",
          "name": "interfaceId",
          "type": "bytes4"
        }
      ],
      "name": "supportsInterface",
      "outputs": [
        {
          "internalType": "bool",
          "name": "",
          "type": "bool"
        }
      ],
      "stateMutability": "view",
      "type": "function"
    },
    {
      "inputs": [
        {
          "internalType": "uint256",
          "name": "",
          "type": "uint256"
        }
      ],
      "name": "uri",
      "outputs": [
        {
          "internalType": "string",
          "name": "",
          "type": "string"
        }
      ],
      "stateMutability": "view",
      "type": "function"
    }
  ],
  "bytecode": "0x608060405260405180608001604052806042815260200162004782604291396003908051906020019062000035929190620005d8565b50604051806080016040528060428152602001620047c4604291396004908051906020019062000067929190620005d8565b506040518060800160405280604481526020016200473e604491396005908051906020019062000099929190620005d8565b50670de0b6b3a7640000600655348015620000b357600080fd5b5060058054620000c39062000765565b80601f0160208091040260200160405190810160405280929190818152602001828054620000f19062000765565b8015620001425780601f10620001165761010080835404028352916020019162000142565b820191906000526020600020905b8154815290600101906020018083116200012457829003601f168201915b505050505062000158816200018f60201b60201c565b5062000169620001ab60201b60201c565b620001796200038860201b60201c565b620001896200049c60201b60201c565b6200079a565b8060029080519060200190620001a7929190620005d8565b5050565b6040518060800160405280604481526020016200473e60449139600760008081526020019081526020016000209080519060200190620001ed929190620005d8565b506040518060800160405280604481526020016200484a604491396007600060018152602001908152602001600020908051906020019062000231929190620005d8565b5060405180608001604052806044815260200162004672604491396007600060028152602001908152602001600020908051906020019062000275929190620005d8565b50604051806080016040528060448152602001620046b66044913960076000600381526020019081526020016000209080519060200190620002b9929190620005d8565b506040518060800160405280604481526020016200488e6044913960076000600481526020019081526020016000209080519060200190620002fd929190620005d8565b5060405180608001604052806044815260200162004806604491396007600060058152602001908152602001600020908051906020019062000341929190620005d8565b50604051806080016040528060448152602001620046fa604491396007600060068152602001908152602001600020908051906020019062000385929190620005d8565b50565b6040518060400160405280600060ff168152602001600160ff168152506009600060038152602001908152602001600020906002620003c992919062000669565b506040518060400160405280600160ff168152602001600260ff1681525060096000600481526020019081526020016000209060026200040b92919062000669565b506040518060400160405280600060ff168152602001600260ff1681525060096000600581526020019081526020016000209060026200044d92919062000669565b506040518060600160405280600060ff168152602001600160ff168152602001600260ff16815250600960006006815260200190815260200160002090600362000499929190620006c0565b50565b60016008600080815260200190815260200160002060006101000a81548160ff0219169083151502179055506001600860006001815260200190815260200160002060006101000a81548160ff0219169083151502179055506001600860006002815260200190815260200160002060006101000a81548160ff0219169083151502179055506001600860006003815260200190815260200160002060006101000a81548160ff0219169083151502179055506001600860006004815260200190815260200160002060006101000a81548160ff0219169083151502179055506001600860006005815260200190815260200160002060006101000a81548160ff0219169083151502179055506001600860006006815260200190815260200160002060006101000a81548160ff021916908315150217905550565b828054620005e69062000765565b90600052602060002090601f0160209004810192826200060a576000855562000656565b82601f106200062557805160ff191683800117855562000656565b8280016001018555821562000656579182015b828111156200065557825182559160200191906001019062000638565b5b50905062000665919062000717565b5090565b828054828255906000526020600020908101928215620006ad579160200282015b82811115620006ac578251829060ff169055916020019190600101906200068a565b5b509050620006bc919062000717565b5090565b82805482825590600052602060002090810192821562000704579160200282015b8281111562000703578251829060ff16905591602001919060010190620006e1565b5b50905062000713919062000717565b5090565b5b808211156200073257600081600090555060010162000718565b5090565b7f4e487b7100000000000000000000000000000000000000000000000000000000600052602260045260246000fd5b600060028204905060018216806200077e57607f821691505b60208210810362000794576200079362000736565b5b50919050565b613ec880620007aa6000396000f3fe6080604052600436106100a65760003560e01c8063681bec6c11610064578063681bec6c146101e4578063a22cb46514610221578063a73e4c081461024a578063dd9a2d7b14610266578063e985e9c514610282578063f242432a146102bf576100a6565b8062fdd58e146100ab57806301ffc9a7146100e85780630e89341c14610125578063290b6802146101625780632eb2c2d61461017e5780634e1273f4146101a7575b600080fd5b3480156100b757600080fd5b506100d260048036038101906100cd91906125ed565b6102e8565b6040516100df919061263c565b60405180910390f35b3480156100f457600080fd5b5061010f600480360381019061010a91906126af565b6103b0565b60405161011c91906126f7565b60405180910390f35b34801561013157600080fd5b5061014c60048036038101906101479190612712565b610492565b60405161015991906127d8565b60405180910390f35b61017c600480360381019061017791906127fa565b610526565b005b34801561018a57600080fd5b506101a560048036038101906101a09190612a37565b6105da565b005b3480156101b357600080fd5b506101ce60048036038101906101c99190612bc9565b61067b565b6040516101db9190612cff565b60405180910390f35b3480156101f057600080fd5b5061020b60048036038101906102069190612d21565b610794565b6040516102189190612cff565b60405180910390f35b34801561022d57600080fd5b5061024860048036038101906102439190612d7a565b61091a565b005b610264600480360381019061025f91906127fa565b610930565b005b610280600480360381019061027b9190612dba565b61099d565b005b34801561028e57600080fd5b506102a960048036038101906102a49190612e0d565b610a81565b6040516102b691906126f7565b60405180910390f35b3480156102cb57600080fd5b506102e660048036038101906102e19190612e4d565b610b15565b005b60008073ffffffffffffffffffffffffffffffffffffffff168373ffffffffffffffffffffffffffffffffffffffff1603610358576040517f08c379a000000000000000000000000000000000000000000000000000000000815260040161034f90612f56565b60405180910390fd5b60008083815260200190815260200160002060008473ffffffffffffffffffffffffffffffffffffffff1673ffffffffffffffffffffffffffffffffffffffff16815260200190815260200160002054905092915050565b60007fd9b67a26000000000000000000000000000000000000000000000000000000007bffffffffffffffffffffffffffffffffffffffffffffffffffffffff1916827bffffffffffffffffffffffffffffffffffffffffffffffffffffffff1916148061047b57507f0e89341c000000000000000000000000000000000000000000000000000000007bffffffffffffffffffffffffffffffffffffffffffffffffffffffff1916827bffffffffffffffffffffffffffffffffffffffffffffffffffffffff1916145b8061048b575061048a82610bb6565b5b9050919050565b6060600280546104a190612fa5565b80601f01602080910402602001604051908101604052809291908181526020018280546104cd90612fa5565b801561051a5780601f106104ef5761010080835404028352916020019161051a565b820191906000526020600020905b8154815290600101906020018083116104fd57829003601f168201915b50505050509050919050565b61052f82610c20565b5061053981610cc5565b6105438282610d02565b5061054d3361108d565b600061055883611119565b905080341015610594576040517fe0dc90d100000000000000000000000000000000000000000000000000000000815260040160405180910390fd5b61059e83836111a7565b7f8e86b1657c6adc5c8e5397acd76303054a5acf8b756882d55e1c32badc419a7d336040516105cd9190612fe5565b60405180910390a1505050565b6105e26111fb565b73ffffffffffffffffffffffffffffffffffffffff168573ffffffffffffffffffffffffffffffffffffffff1614806106285750610627856106226111fb565b610a81565b5b610667576040517f08c379a000000000000000000000000000000000000000000000000000000000815260040161065e90613072565b60405180910390fd5b6106748585858585611203565b5050505050565b606081518351146106c1576040517f08c379a00000000000000000000000000000000000000000000000000000000081526004016106b890613104565b60405180910390fd5b6000835167ffffffffffffffff8111156106de576106dd61283f565b5b60405190808252806020026020018201604052801561070c5781602001602082028036833780820191505090505b50905060005b84518110156107895761075985828151811061073157610730613124565b5b602002602001015185838151811061074c5761074b613124565b5b60200260200101516102e8565b82828151811061076c5761076b613124565b5b6020026020010181815250508061078290613182565b9050610712565b508091505092915050565b60606000600767ffffffffffffffff8111156107b3576107b261283f565b5b6040519080825280602002602001820160405280156107e15781602001602082028036833780820191505090505b5090506107ef8360006102e8565b8160008151811061080357610802613124565b5b60200260200101818152505061081a8360016102e8565b8160018151811061082e5761082d613124565b5b6020026020010181815250506108458360026102e8565b8160028151811061085957610858613124565b5b6020026020010181815250506108708360036102e8565b8160038151811061088457610883613124565b5b60200260200101818152505061089b8360046102e8565b816004815181106108af576108ae613124565b5b6020026020010181815250506108c68360056102e8565b816005815181106108da576108d9613124565b5b6020026020010181815250506108f18360066102e8565b8160068151811061090557610904613124565b5b60200260200101818152505080915050919050565b61092c6109256111fb565b8383611524565b5050565b61093982610c20565b5061094381610cc5565b61094d8282611690565b506109573361108d565b6109623383836117e7565b7f8e86b1657c6adc5c8e5397acd76303054a5acf8b756882d55e1c32badc419a7d336040516109919190612fe5565b60405180910390a15050565b8183036109df576040517f08c379a00000000000000000000000000000000000000000000000000000000081526004016109d690613216565b60405180910390fd5b6109e883610c20565b506109f282610c20565b506109fc81610cc5565b610a0883826001611a2d565b50610a1582826000611a2d565b50610a1f3361108d565b610a2a3384836117e7565b610a4533838360405180602001604052806000815250611c2c565b7f8e86b1657c6adc5c8e5397acd76303054a5acf8b756882d55e1c32badc419a7d33604051610a749190612fe5565b60405180910390a1505050565b6000600160008473ffffffffffffffffffffffffffffffffffffffff1673ffffffffffffffffffffffffffffffffffffffff16815260200190815260200160002060008373ffffffffffffffffffffffffffffffffffffffff1673ffffffffffffffffffffffffffffffffffffffff16815260200190815260200160002060009054906101000a900460ff16905092915050565b610b1d6111fb565b73ffffffffffffffffffffffffffffffffffffffff168573ffffffffffffffffffffffffffffffffffffffff161480610b635750610b6285610b5d6111fb565b610a81565b5b610ba2576040517f08c379a0000000000000000000000000000000000000000000000000000000008152600401610b9990613072565b60405180910390fd5b610baf8585858585611ddc565b5050505050565b60007f01ffc9a7000000000000000000000000000000000000000000000000000000007bffffffffffffffffffffffffffffffffffffffffffffffffffffffff1916827bffffffffffffffffffffffffffffffffffffffffffffffffffffffff1916149050919050565b6060600760008381526020019081526020016000208054610c4090612fa5565b80601f0160208091040260200160405190810160405280929190818152602001828054610c6c90612fa5565b8015610cb95780601f10610c8e57610100808354040283529160200191610cb9565b820191906000526020600020905b815481529060010190602001808311610c9c57829003601f168201915b50505050509050919050565b60008103610cff576040517f81c0d0de00000000000000000000000000000000000000000000000000000000815260040160405180910390fd5b50565b600080831480610d125750600183145b80610d1d5750600283145b15610d2b5760019050611087565b60038303610dec57600182610d409190613236565b610d4b3360006102e8565b11610d8b576040517f08c379a0000000000000000000000000000000000000000000000000000000008152600401610d82906132b6565b60405180910390fd5b600182610d989190613236565b610da33360016102e8565b11610de3576040517f08c379a0000000000000000000000000000000000000000000000000000000008152600401610dda90613322565b60405180910390fd5b60019050611086565b60048303610ead57600182610e019190613236565b610e0c3360016102e8565b11610e4c576040517f08c379a0000000000000000000000000000000000000000000000000000000008152600401610e4390613322565b60405180910390fd5b600182610e599190613236565b610e643360026102e8565b11610ea4576040517f08c379a0000000000000000000000000000000000000000000000000000000008152600401610e9b9061338e565b60405180910390fd5b60019050611085565b60058303610f6e57600182610ec29190613236565b610ecd3360006102e8565b11610f0d576040517f08c379a0000000000000000000000000000000000000000000000000000000008152600401610f04906132b6565b60405180910390fd5b600182610f1a9190613236565b610f253360026102e8565b11610f65576040517f08c379a0000000000000000000000000000000000000000000000000000000008152600401610f5c9061338e565b60405180910390fd5b60019050611084565b6006830361108357600182610f839190613236565b610f8e3360006102e8565b11610fce576040517f08c379a0000000000000000000000000000000000000000000000000000000008152600401610fc5906132b6565b60405180910390fd5b600182610fdb9190613236565b610fe63360016102e8565b11611026576040517f08c379a000000000000000000000000000000000000000000000000000000000815260040161101d90613322565b60405180910390fd5b6001826110339190613236565b61103e3360026102e8565b1161107e576040517f08c379a00000000000000000000000000000000000000000000000000000000081526004016110759061338e565b60405180910390fd5b600190505b5b5b5b5b92915050565b600073ffffffffffffffffffffffffffffffffffffffff168173ffffffffffffffffffffffffffffffffffffffff1614806110df575060008173ffffffffffffffffffffffffffffffffffffffff163b115b15611116576040517fa5f90a1100000000000000000000000000000000000000000000000000000000815260040160405180910390fd5b50565b600080820361112b57600090506111a2565b6001820361113c57600090506111a1565b6002820361114d57600090506111a0565b6003820361116457661550f7dca70000905061119f565b6004820361117b57661c6bf526340000905061119e565b6005820361119257661c6bf526340000905061119d565b662386f26fc1000090505b5b5b5b5b5b919050565b60038214806111b65750600482145b806111c15750600582145b806111cc5750600682145b156111dc576111db8282612077565b5b6111f733838360405180602001604052806000815250611c2c565b5050565b600033905090565b8151835114611247576040517f08c379a000000000000000000000000000000000000000000000000000000000815260040161123e90613420565b60405180910390fd5b600073ffffffffffffffffffffffffffffffffffffffff168473ffffffffffffffffffffffffffffffffffffffff16036112b6576040517f08c379a00000000000000000000000000000000000000000000000000000000081526004016112ad906134b2565b60405180910390fd5b60006112c06111fb565b90506112d08187878787876120ea565b60005b84518110156114815760008582815181106112f1576112f0613124565b5b6020026020010151905060008583815181106113105761130f613124565b5b60200260200101519050600080600084815260200190815260200160002060008b73ffffffffffffffffffffffffffffffffffffffff1673ffffffffffffffffffffffffffffffffffffffff168152602001908152602001600020549050818110156113b1576040517f08c379a00000000000000000000000000000000000000000000000000000000081526004016113a890613544565b60405180910390fd5b81810360008085815260200190815260200160002060008c73ffffffffffffffffffffffffffffffffffffffff1673ffffffffffffffffffffffffffffffffffffffff168152602001908152602001600020819055508160008085815260200190815260200160002060008b73ffffffffffffffffffffffffffffffffffffffff1673ffffffffffffffffffffffffffffffffffffffff16815260200190815260200160002060008282546114669190613564565b925050819055505050508061147a90613182565b90506112d3565b508473ffffffffffffffffffffffffffffffffffffffff168673ffffffffffffffffffffffffffffffffffffffff168273ffffffffffffffffffffffffffffffffffffffff167f4a39dc06d4c0dbc64b70af90fd698a233a518aa5d07e595d983b8c0526c8f7fb87876040516114f89291906135ba565b60405180910390a461150e8187878787876120f2565b61151c8187878787876120fa565b505050505050565b8173ffffffffffffffffffffffffffffffffffffffff168373ffffffffffffffffffffffffffffffffffffffff1603611592576040517f08c379a000000000000000000000000000000000000000000000000000000000815260040161158990613663565b60405180910390fd5b80600160008573ffffffffffffffffffffffffffffffffffffffff1673ffffffffffffffffffffffffffffffffffffffff16815260200190815260200160002060008473ffffffffffffffffffffffffffffffffffffffff1673ffffffffffffffffffffffffffffffffffffffff16815260200190815260200160002060006101000a81548160ff0219169083151502179055508173ffffffffffffffffffffffffffffffffffffffff168373ffffffffffffffffffffffffffffffffffffffff167f17307eab39ab6107e8899845ad3d59bd9653f200f220920489ca2b5937696c318360405161168391906126f7565b60405180910390a3505050565b60008083036116d4576040517f08c379a00000000000000000000000000000000000000000000000000000000081526004016116cb906136cf565b60405180910390fd5b60018303611717576040517f08c379a000000000000000000000000000000000000000000000000000000000815260040161170e906136cf565b60405180910390fd5b6002830361175a576040517f08c379a0000000000000000000000000000000000000000000000000000000008152600401611751906136cf565b60405180910390fd5b60038314806117695750600483145b806117745750600583145b8061177f5750600683145b801561178b5750600082115b156117e1578161179b33856102e8565b10156117dc576040517f08c379a00000000000000000000000000000000000000000000000000000000081526004016117d39061373b565b60405180910390fd5b600190505b92915050565b600073ffffffffffffffffffffffffffffffffffffffff168373ffffffffffffffffffffffffffffffffffffffff1603611856576040517f08c379a000000000000000000000000000000000000000000000000000000000815260040161184d906137cd565b60405180910390fd5b60006118606111fb565b9050600061186d846122d1565b9050600061187a846122d1565b905061189a838760008585604051806020016040528060008152506120ea565b600080600087815260200190815260200160002060008873ffffffffffffffffffffffffffffffffffffffff1673ffffffffffffffffffffffffffffffffffffffff16815260200190815260200160002054905084811015611931576040517f08c379a00000000000000000000000000000000000000000000000000000000081526004016119289061385f565b60405180910390fd5b84810360008088815260200190815260200160002060008973ffffffffffffffffffffffffffffffffffffffff1673ffffffffffffffffffffffffffffffffffffffff16815260200190815260200160002081905550600073ffffffffffffffffffffffffffffffffffffffff168773ffffffffffffffffffffffffffffffffffffffff168573ffffffffffffffffffffffffffffffffffffffff167fc3d58168c5ae7397731d063d5bbf3d657854427343f4c083240f7aacaa2d0f6289896040516119fe92919061387f565b60405180910390a4611a24848860008686604051806020016040528060008152506120f2565b50505050505050565b600081611b415760038403611a77576040517f08c379a0000000000000000000000000000000000000000000000000000000008152600401611a6e906138f4565b60405180910390fd5b60048403611aba576040517f08c379a0000000000000000000000000000000000000000000000000000000008152600401611ab190613960565b60405180910390fd5b60058403611afd576040517f08c379a0000000000000000000000000000000000000000000000000000000008152600401611af4906139cc565b60405180910390fd5b60068403611b40576040517f08c379a0000000000000000000000000000000000000000000000000000000008152600401611b3790613a38565b60405180910390fd5b5b6000841480611b505750600184145b80611b5b5750600284145b80611b665750600384145b80611b715750600484145b80611b7c5750600584145b80611b875750600684145b8015611b935750600083115b8015611b9c5750815b15611bf65782611bac33866102e8565b1015611bed576040517f08c379a0000000000000000000000000000000000000000000000000000000008152600401611be490613aa4565b60405180910390fd5b60019050611c25565b6000841480611c055750600184145b80611c105750600284145b8015611c1a575081155b15611c2457600190505b5b9392505050565b600073ffffffffffffffffffffffffffffffffffffffff168473ffffffffffffffffffffffffffffffffffffffff1603611c9b576040517f08c379a0000000000000000000000000000000000000000000000000000000008152600401611c9290613b36565b60405180910390fd5b6000611ca56111fb565b90506000611cb2856122d1565b90506000611cbf856122d1565b9050611cd0836000898585896120ea565b8460008088815260200190815260200160002060008973ffffffffffffffffffffffffffffffffffffffff1673ffffffffffffffffffffffffffffffffffffffff1681526020019081526020016000206000828254611d2f9190613564565b925050819055508673ffffffffffffffffffffffffffffffffffffffff16600073ffffffffffffffffffffffffffffffffffffffff168473ffffffffffffffffffffffffffffffffffffffff167fc3d58168c5ae7397731d063d5bbf3d657854427343f4c083240f7aacaa2d0f628989604051611dad92919061387f565b60405180910390a4611dc4836000898585896120f2565b611dd38360008989898961234b565b50505050505050565b600073ffffffffffffffffffffffffffffffffffffffff168473ffffffffffffffffffffffffffffffffffffffff1603611e4b576040517f08c379a0000000000000000000000000000000000000000000000000000000008152600401611e42906134b2565b60405180910390fd5b6000611e556111fb565b90506000611e62856122d1565b90506000611e6f856122d1565b9050611e7f8389898585896120ea565b600080600088815260200190815260200160002060008a73ffffffffffffffffffffffffffffffffffffffff1673ffffffffffffffffffffffffffffffffffffffff16815260200190815260200160002054905085811015611f16576040517f08c379a0000000000000000000000000000000000000000000000000000000008152600401611f0d90613544565b60405180910390fd5b85810360008089815260200190815260200160002060008b73ffffffffffffffffffffffffffffffffffffffff1673ffffffffffffffffffffffffffffffffffffffff168152602001908152602001600020819055508560008089815260200190815260200160002060008a73ffffffffffffffffffffffffffffffffffffffff1673ffffffffffffffffffffffffffffffffffffffff1681526020019081526020016000206000828254611fcb9190613564565b925050819055508773ffffffffffffffffffffffffffffffffffffffff168973ffffffffffffffffffffffffffffffffffffffff168573ffffffffffffffffffffffffffffffffffffffff167fc3d58168c5ae7397731d063d5bbf3d657854427343f4c083240f7aacaa2d0f628a8a60405161204892919061387f565b60405180910390a461205e848a8a86868a6120f2565b61206c848a8a8a8a8a61234b565b505050505050505050565b60005b60096000848152602001908152602001600020805490508110156120e5576120d2336009600086815260200190815260200160002083815481106120c1576120c0613124565b5b9060005260206000200154846117e7565b80806120dd90613182565b91505061207a565b505050565b505050505050565b505050505050565b6121198473ffffffffffffffffffffffffffffffffffffffff16612522565b156122c9578373ffffffffffffffffffffffffffffffffffffffff1663bc197c8187878686866040518663ffffffff1660e01b815260040161215f959493929190613bab565b6020604051808303816000875af192505050801561219b57506040513d601f19601f820116820180604052508101906121989190613c28565b60015b612240576121a7613c62565b806308c379a00361220357506121bb613c84565b806121c65750612205565b806040517f08c379a00000000000000000000000000000000000000000000000000000000081526004016121fa91906127d8565b60405180910390fd5b505b6040517f08c379a000000000000000000000000000000000000000000000000000000000815260040161223790613d86565b60405180910390fd5b63bc197c8160e01b7bffffffffffffffffffffffffffffffffffffffffffffffffffffffff1916817bffffffffffffffffffffffffffffffffffffffffffffffffffffffff1916146122c7576040517f08c379a00000000000000000000000000000000000000000000000000000000081526004016122be90613e18565b60405180910390fd5b505b505050505050565b60606000600167ffffffffffffffff8111156122f0576122ef61283f565b5b60405190808252806020026020018201604052801561231e5781602001602082028036833780820191505090505b509050828160008151811061233657612335613124565b5b60200260200101818152505080915050919050565b61236a8473ffffffffffffffffffffffffffffffffffffffff16612522565b1561251a578373ffffffffffffffffffffffffffffffffffffffff1663f23a6e6187878686866040518663ffffffff1660e01b81526004016123b0959493929190613e38565b6020604051808303816000875af19250505080156123ec57506040513d601f19601f820116820180604052508101906123e99190613c28565b60015b612491576123f8613c62565b806308c379a003612454575061240c613c84565b806124175750612456565b806040517f08c379a000000000000000000000000000000000000000000000000000000000815260040161244b91906127d8565b60405180910390fd5b505b6040517f08c379a000000000000000000000000000000000000000000000000000000000815260040161248890613d86565b60405180910390fd5b63f23a6e6160e01b7bffffffffffffffffffffffffffffffffffffffffffffffffffffffff1916817bffffffffffffffffffffffffffffffffffffffffffffffffffffffff191614612518576040517f08c379a000000000000000000000000000000000000000000000000000000000815260040161250f90613e18565b60405180910390fd5b505b505050505050565b6000808273ffffffffffffffffffffffffffffffffffffffff163b119050919050565b6000604051905090565b600080fd5b600080fd5b600073ffffffffffffffffffffffffffffffffffffffff82169050919050565b600061258482612559565b9050919050565b61259481612579565b811461259f57600080fd5b50565b6000813590506125b18161258b565b92915050565b6000819050919050565b6125ca816125b7565b81146125d557600080fd5b50565b6000813590506125e7816125c1565b92915050565b600080604083850312156126045761260361254f565b5b6000612612858286016125a2565b9250506020612623858286016125d8565b9150509250929050565b612636816125b7565b82525050565b6000602082019050612651600083018461262d565b92915050565b60007fffffffff0000000000000000000000000000000000000000000000000000000082169050919050565b61268c81612657565b811461269757600080fd5b50565b6000813590506126a981612683565b92915050565b6000602082840312156126c5576126c461254f565b5b60006126d38482850161269a565b91505092915050565b60008115159050919050565b6126f1816126dc565b82525050565b600060208201905061270c60008301846126e8565b92915050565b6000602082840312156127285761272761254f565b5b6000612736848285016125d8565b91505092915050565b600081519050919050565b600082825260208201905092915050565b60005b8381101561277957808201518184015260208101905061275e565b83811115612788576000848401525b50505050565b6000601f19601f8301169050919050565b60006127aa8261273f565b6127b4818561274a565b93506127c481856020860161275b565b6127cd8161278e565b840191505092915050565b600060208201905081810360008301526127f2818461279f565b905092915050565b600080604083850312156128115761281061254f565b5b600061281f858286016125d8565b9250506020612830858286016125d8565b9150509250929050565b600080fd5b7f4e487b7100000000000000000000000000000000000000000000000000000000600052604160045260246000fd5b6128778261278e565b810181811067ffffffffffffffff821117156128965761289561283f565b5b80604052505050565b60006128a9612545565b90506128b5828261286e565b919050565b600067ffffffffffffffff8211156128d5576128d461283f565b5b602082029050602081019050919050565b600080fd5b60006128fe6128f9846128ba565b61289f565b90508083825260208201905060208402830185811115612921576129206128e6565b5b835b8181101561294a578061293688826125d8565b845260208401935050602081019050612923565b5050509392505050565b600082601f8301126129695761296861283a565b5b81356129798482602086016128eb565b91505092915050565b600080fd5b600067ffffffffffffffff8211156129a2576129a161283f565b5b6129ab8261278e565b9050602081019050919050565b82818337600083830152505050565b60006129da6129d584612987565b61289f565b9050828152602081018484840111156129f6576129f5612982565b5b612a018482856129b8565b509392505050565b600082601f830112612a1e57612a1d61283a565b5b8135612a2e8482602086016129c7565b91505092915050565b600080600080600060a08688031215612a5357612a5261254f565b5b6000612a61888289016125a2565b9550506020612a72888289016125a2565b945050604086013567ffffffffffffffff811115612a9357612a92612554565b5b612a9f88828901612954565b935050606086013567ffffffffffffffff811115612ac057612abf612554565b5b612acc88828901612954565b925050608086013567ffffffffffffffff811115612aed57612aec612554565b5b612af988828901612a09565b9150509295509295909350565b600067ffffffffffffffff821115612b2157612b2061283f565b5b602082029050602081019050919050565b6000612b45612b4084612b06565b61289f565b90508083825260208201905060208402830185811115612b6857612b676128e6565b5b835b81811015612b915780612b7d88826125a2565b845260208401935050602081019050612b6a565b5050509392505050565b600082601f830112612bb057612baf61283a565b5b8135612bc0848260208601612b32565b91505092915050565b60008060408385031215612be057612bdf61254f565b5b600083013567ffffffffffffffff811115612bfe57612bfd612554565b5b612c0a85828601612b9b565b925050602083013567ffffffffffffffff811115612c2b57612c2a612554565b5b612c3785828601612954565b9150509250929050565b600081519050919050565b600082825260208201905092915050565b6000819050602082019050919050565b612c76816125b7565b82525050565b6000612c888383612c6d565b60208301905092915050565b6000602082019050919050565b6000612cac82612c41565b612cb68185612c4c565b9350612cc183612c5d565b8060005b83811015612cf2578151612cd98882612c7c565b9750612ce483612c94565b925050600181019050612cc5565b5085935050505092915050565b60006020820190508181036000830152612d198184612ca1565b905092915050565b600060208284031215612d3757612d3661254f565b5b6000612d45848285016125a2565b91505092915050565b612d57816126dc565b8114612d6257600080fd5b50565b600081359050612d7481612d4e565b92915050565b60008060408385031215612d9157612d9061254f565b5b6000612d9f858286016125a2565b9250506020612db085828601612d65565b9150509250929050565b600080600060608486031215612dd357612dd261254f565b5b6000612de1868287016125d8565b9350506020612df2868287016125d8565b9250506040612e03868287016125d8565b9150509250925092565b60008060408385031215612e2457612e2361254f565b5b6000612e32858286016125a2565b9250506020612e43858286016125a2565b9150509250929050565b600080600080600060a08688031215612e6957612e6861254f565b5b6000612e77888289016125a2565b9550506020612e88888289016125a2565b9450506040612e99888289016125d8565b9350506060612eaa888289016125d8565b925050608086013567ffffffffffffffff811115612ecb57612eca612554565b5b612ed788828901612a09565b9150509295509295909350565b7f455243313135353a2061646472657373207a65726f206973206e6f742061207660008201527f616c6964206f776e657200000000000000000000000000000000000000000000602082015250565b6000612f40602a8361274a565b9150612f4b82612ee4565b604082019050919050565b60006020820190508181036000830152612f6f81612f33565b9050919050565b7f4e487b7100000000000000000000000000000000000000000000000000000000600052602260045260246000fd5b60006002820490506001821680612fbd57607f821691505b602082108103612fd057612fcf612f76565b5b50919050565b612fdf81612579565b82525050565b6000602082019050612ffa6000830184612fd6565b92915050565b7f455243313135353a2063616c6c6572206973206e6f7420746f6b656e206f776e60008201527f6572206e6f7220617070726f7665640000000000000000000000000000000000602082015250565b600061305c602f8361274a565b915061306782613000565b604082019050919050565b6000602082019050818103600083015261308b8161304f565b9050919050565b7f455243313135353a206163636f756e747320616e6420696473206c656e67746860008201527f206d69736d617463680000000000000000000000000000000000000000000000602082015250565b60006130ee60298361274a565b91506130f982613092565b604082019050919050565b6000602082019050818103600083015261311d816130e1565b9050919050565b7f4e487b7100000000000000000000000000000000000000000000000000000000600052603260045260246000fd5b7f4e487b7100000000000000000000000000000000000000000000000000000000600052601160045260246000fd5b600061318d826125b7565b91507fffffffffffffffffffffffffffffffffffffffffffffffffffffffffffffffff82036131bf576131be613153565b5b600182019050919050565b7f496e76616c6964205472616e7366657200000000000000000000000000000000600082015250565b600061320060108361274a565b915061320b826131ca565b602082019050919050565b6000602082019050818103600083015261322f816131f3565b9050919050565b6000613241826125b7565b915061324c836125b7565b92508282101561325f5761325e613153565b5b828203905092915050565b7f4d697373696e67206120546f6b656e205a65726f000000000000000000000000600082015250565b60006132a060148361274a565b91506132ab8261326a565b602082019050919050565b600060208201905081810360008301526132cf81613293565b9050919050565b7f4d697373696e67206120546f6b656e204f6e6500000000000000000000000000600082015250565b600061330c60138361274a565b9150613317826132d6565b602082019050919050565b6000602082019050818103600083015261333b816132ff565b9050919050565b7f4d697373696e67206120546f6b656e2054776f00000000000000000000000000600082015250565b600061337860138361274a565b915061338382613342565b602082019050919050565b600060208201905081810360008301526133a78161336b565b9050919050565b7f455243313135353a2069647320616e6420616d6f756e7473206c656e6774682060008201527f6d69736d61746368000000000000000000000000000000000000000000000000602082015250565b600061340a60288361274a565b9150613415826133ae565b604082019050919050565b60006020820190508181036000830152613439816133fd565b9050919050565b7f455243313135353a207472616e7366657220746f20746865207a65726f20616460008201527f6472657373000000000000000000000000000000000000000000000000000000602082015250565b600061349c60258361274a565b91506134a782613440565b604082019050919050565b600060208201905081810360008301526134cb8161348f565b9050919050565b7f455243313135353a20696e73756666696369656e742062616c616e636520666f60008201527f72207472616e7366657200000000000000000000000000000000000000000000602082015250565b600061352e602a8361274a565b9150613539826134d2565b604082019050919050565b6000602082019050818103600083015261355d81613521565b9050919050565b600061356f826125b7565b915061357a836125b7565b9250827fffffffffffffffffffffffffffffffffffffffffffffffffffffffffffffffff038211156135af576135ae613153565b5b828201905092915050565b600060408201905081810360008301526135d48185612ca1565b905081810360208301526135e88184612ca1565b90509392505050565b7f455243313135353a2073657474696e6720617070726f76616c2073746174757360008201527f20666f722073656c660000000000000000000000000000000000000000000000602082015250565b600061364d60298361274a565b9150613658826135f1565b604082019050919050565b6000602082019050818103600083015261367c81613640565b9050919050565b7f43616e206e6f74206275726e207468697320746f6b656e000000000000000000600082015250565b60006136b960178361274a565b91506136c482613683565b602082019050919050565b600060208201905081810360008301526136e8816136ac565b9050919050565b7f496e73756666696369656e7420546f6b656e7320746f206275726e0000000000600082015250565b6000613725601b8361274a565b9150613730826136ef565b602082019050919050565b6000602082019050818103600083015261375481613718565b9050919050565b7f455243313135353a206275726e2066726f6d20746865207a65726f206164647260008201527f6573730000000000000000000000000000000000000000000000000000000000602082015250565b60006137b760238361274a565b91506137c28261375b565b604082019050919050565b600060208201905081810360008301526137e6816137aa565b9050919050565b7f455243313135353a206275726e20616d6f756e7420657863656564732062616c60008201527f616e636500000000000000000000000000000000000000000000000000000000602082015250565b600061384960248361274a565b9150613854826137ed565b604082019050919050565b600060208201905081810360008301526138788161383c565b9050919050565b6000604082019050613894600083018561262d565b6138a1602083018461262d565b9392505050565b7f43616e206e6f7420547261646520466f7220746f6b656e203300000000000000600082015250565b60006138de60198361274a565b91506138e9826138a8565b602082019050919050565b6000602082019050818103600083015261390d816138d1565b9050919050565b7f43616e206e6f7420547261646520466f7220746f6b656e203400000000000000600082015250565b600061394a60198361274a565b915061395582613914565b602082019050919050565b600060208201905081810360008301526139798161393d565b9050919050565b7f43616e206e6f7420547261646520466f7220746f6b656e203500000000000000600082015250565b60006139b660198361274a565b91506139c182613980565b602082019050919050565b600060208201905081810360008301526139e5816139a9565b9050919050565b7f43616e206e6f7420547261646520466f7220746f6b656e203600000000000000600082015250565b6000613a2260198361274a565b9150613a2d826139ec565b602082019050919050565b60006020820190508181036000830152613a5181613a15565b9050919050565b7f496e73756666696369656e7420546f6b656e7320746f205472616e7366657200600082015250565b6000613a8e601f8361274a565b9150613a9982613a58565b602082019050919050565b60006020820190508181036000830152613abd81613a81565b9050919050565b7f455243313135353a206d696e7420746f20746865207a65726f2061646472657360008201527f7300000000000000000000000000000000000000000000000000000000000000602082015250565b6000613b2060218361274a565b9150613b2b82613ac4565b604082019050919050565b60006020820190508181036000830152613b4f81613b13565b9050919050565b600081519050919050565b600082825260208201905092915050565b6000613b7d82613b56565b613b878185613b61565b9350613b9781856020860161275b565b613ba08161278e565b840191505092915050565b600060a082019050613bc06000830188612fd6565b613bcd6020830187612fd6565b8181036040830152613bdf8186612ca1565b90508181036060830152613bf38185612ca1565b90508181036080830152613c078184613b72565b90509695505050505050565b600081519050613c2281612683565b92915050565b600060208284031215613c3e57613c3d61254f565b5b6000613c4c84828501613c13565b91505092915050565b60008160e01c9050919050565b600060033d1115613c815760046000803e613c7e600051613c55565b90505b90565b600060443d10613d1157613c96612545565b60043d036004823e80513d602482011167ffffffffffffffff82111715613cbe575050613d11565b808201805167ffffffffffffffff811115613cdc5750505050613d11565b80602083010160043d038501811115613cf9575050505050613d11565b613d088260200185018661286e565b82955050505050505b90565b7f455243313135353a207472616e7366657220746f206e6f6e204552433131353560008201527f526563656976657220696d706c656d656e746572000000000000000000000000602082015250565b6000613d7060348361274a565b9150613d7b82613d14565b604082019050919050565b60006020820190508181036000830152613d9f81613d63565b9050919050565b7f455243313135353a204552433131353552656365697665722072656a6563746560008201527f6420746f6b656e73000000000000000000000000000000000000000000000000602082015250565b6000613e0260288361274a565b9150613e0d82613da6565b604082019050919050565b60006020820190508181036000830152613e3181613df5565b9050919050565b600060a082019050613e4d6000830188612fd6565b613e5a6020830187612fd6565b613e67604083018661262d565b613e74606083018561262d565b8181036080830152613e868184613b72565b9050969550505050505056fea26469706673582212203ea1145ef160651d9120387ea932df53611f6d7e3f2471c5c3db66493dd356d464736f6c634300080d0033697066733a2f2f62616679626569656c736e36346b66656e696a7071766d743577783576776d756862736462796e7175766a7932777377737869677067746a326a712f32697066733a2f2f62616679626569656c736e36346b66656e696a7071766d743577783576776d756862736462796e7175766a7932777377737869677067746a326a712f33697066733a2f2f62616679626569656c736e36346b66656e696a7071766d743577783576776d756862736462796e7175766a7932777377737869677067746a326a712f36697066733a2f2f62616679626569656c736e36346b66656e696a7071766d743577783576776d756862736462796e7175766a7932777377737869677067746a326a712f30697066733a2f2f626166796265696134657936616b356e6f64747171746e6f76366d687773793362347662736d6968706a756e6d6c7a787567623775746536336a34697066733a2f2f62616679626569656c736e36346b66656e696a7071766d743577783576776d756862736462796e7175766a7932777377737869677067746a326a71697066733a2f2f62616679626569656c736e36346b66656e696a7071766d743577783576776d756862736462796e7175766a7932777377737869677067746a326a712f35697066733a2f2f62616679626569656c736e36346b66656e696a7071766d743577783576776d756862736462796e7175766a7932777377737869677067746a326a712f31697066733a2f2f62616679626569656c736e36346b66656e696a7071766d743577783576776d756862736462796e7175766a7932777377737869677067746a326a712f34",
  "linkReferences": {},
  "deployedLinkReferences": {}
}